:100000000C9465030C9482030C9482030C94820379
:100010000C9482030C9482030C9482030C9482034C
:100020000C9482030C9482030C9482030C9482033C
:100030000C9482030C9454070C9482030C94820356
:100040000C94E1030C9482030C943C060C94820300
:100050000C9482030C9482030C9482030C9482030C
:100060000C945F150C948203900598059A059D05E4
:1000700098059A059D05084AD73B3BCE016E84BC86
:10008000BFFDC12F3D6C74319ABD56833DDA3D00F2
:10009000C77F11BED9E4BB4C3E916BAAAABE00003B
:1000A00000803F00666F6F6261723D25660D0A0039
:1000B0006261723D25640D0A00666F6F3D25640D17
:1000C0000A00696C6C6567616C20706172616D65B6
:1000D0007465720D0A00696C6C6567616C207061F3
:1000E00072616D657465720D0A00656E74727920B7
:1000F0006E6F7420666F756E640D0A00666F6F0018
:1001000000000000000000000000000000000000EF
:100110000100000093042C046261720000000000E2
:1001200000000000000000000000000001000000CE
:1001300097044904666F6F6261720000000000005E
:100140000000000000000000070000009B0466049F
:10015000000000000000000000000000000000009F
:10016000000000000000000000000000636C693A1D
:10017000200048454C4C4F20574F524C440D0A002C
:1001800030313233343536373839414243444546CD
:100190000064656275673A2000636F6E6669672E5A
:1001A0006163635F6F66667365745B782C792C7A24
:1001B0005D3A20256C6409256C6409256C640D0A80
:1001C000007570646174696E6720616363206361A8
:1001D0006C6962726174696F6E206F6666736574B4
:1001E000732E2E2E0D0A00636F6E6669672E677977
:1001F000726F5F6F66667365745B782C792C7A5DBD
:100200003A20256C6409256C6409256C640D0A008C
:100210007570646174696E67206779726F206361BD
:100220006C6962726174696F6E206F666673657463
:10023000732E2E2E0D0A006779726F2063616C6930
:1002400062726174696F6E206661696C65642C20EE
:100250007265747279696E672E2E2E0D0A00693DE3
:10026000256420636F756E7465723D256420646932
:1002700066663D2564206779726F5B695D3D256424
:100280002C20707265765F6779726F5B695D3D25C2
:10029000640D0A00696E69745F73656E736F725FD7
:1002A0006F7269656E746174696F6E2E2E2E0D0A01
:1002B00000696D752074657374206661696C65648E
:1002C000210D0A00636F6E6669672E6163635F6F5D
:1002D00066667365745B782C792C7A5D3A202564A8
:1002E0002025642025640D0A00636F6E6669672E01
:1002F0006779726F5F6F66667365745B782C792CB3
:100300007A5D3A2025642025642025640D0A007258
:10031000756E6E696E67206779726F206F6666739F
:1003200065742063616C6962726174696F6E2E2EF0
:100330002E0D0A00696D75207465737420706173E9
:10034000732E0D0A0072756E6E696E6720696D7589
:1003500020746573742E2E2E0D0A00696D755F6909
:100360006E69742E2E2E0D0A00696E697469616CB7
:10037000697A696E67207265736F6C7574696F6EE8
:1003800020646976696465722E2E2E0D0A006779E5
:10039000726F3A20007365745F736C6565705F659A
:1003A0006E61626C65643A206661696C65640D0A11
:1003B000007365745F736C6565705F656E61626C18
:1003C00065643A20737563636573730D0A00736522
:1003D000745F66756C6C5F7363616C655F616363AA
:1003E000656C5F72616E67653A206661696C656411
:1003F0000D0A007365745F66756C6C5F7363616C86
:10040000655F616363656C5F72616E67653A2073F7
:100410007563636573730D0A007365745F66756C4D
:100420006C5F7363616C655F6779726F5F72616E39
:1004300067653A206661696C65640D0A00736574CE
:100440005F66756C6C5F7363616C655F6779726F13
:100450005F72616E67653A20737563636573730DD0
:100460000A007365745F636C6F636B5F736F7572A3
:1004700063653A206661696C65640D0A0073657492
:100480005F636C6F636B5F736F757263653A207344
:100490007563636573730D0A00290D0A006D70752D
:1004A000363035305F746573743A20283078006DCB
:1004B0007075363035303A2000726F6C6C2F706971
:1004C0007463682F7961772025663A25663A256638
:1004D0000D0A00696E69745F706964732E2E2E0DAB
:1004E0000A0067696D62616C3A20007061726D3D4F
:1004F00025730D0A00636D643D25730D0A00636C5E
:10050000693A20007374617274696E672067696D5F
:1005100062616C206C6F6F702E2E2E0D0A00676961
:100520006D62616C5F696E69742E2E2E0D0A006714
:1005300079726F5F696E69742E2E2E0D0A006A6FD4
:10054000696E696E6720693263206275732E2E2E84
:100550000D0A00636F6E6669675F696E69742E2E9F
:100560002E0D0A000D0A0D0A6176725F3332387063
:100570005F67696D62616C207374617274696E6724
:100580002E2E2E0D0A006D61696E3A20006E616E8E
:1005900000696E660000407A10F35A00A0724E188F
:1005A000090010A5D4E80000E87648170000E40B25
:1005B00054020000CA9A3B000000E1F505000080EB
:1005C000969800000040420F000000A08601000045
:1005D00000102700000000E8030000000064000095
:1005E0000000000A00000000000100000000002CD4
:1005F00076D888DC674F0823DFC1DFAE59E1B1B799
:1006000096E5E3E453C63AE651997696E8E6C28465
:1006100026EB898C9B62ED407C6FFCEFBC9C9F407D
:10062000F2BAA56FA5F490055A2AF75C936B6CF9A2
:10063000676DC11BFCE0E40D47FEF520E6B500D078
:10064000ED902E0300943577050080841E0800008D
:10065000204E0A000000C80C333333330F986E125B
:10066000831141EF8D2114893BE65516CFFEE6DB61
:1006700018D1844B381BF77C1D901DA4BBE42420AB
:100680003284725E228100C9F124ECA1E53D274E3F
:10069000414E494E495459494E46CDCCCC3D0AD7DE
:1006A000233C17B7D13877CC2B329595E6241FB170
:1006B0004F0A000020410000C84200401C4620BCF8
:1006C000BE4CCA1B0E5AAEC59D7411241FBECFEF7F
:1006D000D8E0DEBFCDBF11E0A0E0B1E0E4E1FDE590
:1006E00002C005900D92AA34B107D9F726E0AAE41A
:1006F000B1E001C01D92A53CB207E1F70E94E520E0
:100700000C94882E0C94000084B5836084BD8DE722
:1007100087BD85B5836085BD81E080936E000895B7
:100720002FB7F89460914B0170914C0180914D016D
:1007300090914E012FBF08953FB7F89480914F01DB
:1007400090915001A0915101B091520126B5A89B02
:1007500005C02F3F19F00196A11DB11D3FBF6627AF
:10076000782F892F9A2F620F711D811D911D43E0F3
:10077000660F771F881F991F4A95D1F708958F92AA
:100780009F92AF92BF92CF92DF92EF92FF924B0176
:100790005C010E9490036B017C01C80CD91CEA1C0F
:1007A000FB1C0E949003C616D706E806F906C8F798
:1007B000FF90EF90DF90CF90BF90AF909F908F9081
:1007C00008951F920F920FB60F9211242F933F930B
:1007D0008F939F93AF93BF9380914B0190914C0166
:1007E000A0914D01B0914E0130914A0126E0230FB6
:1007F0002D3720F40296A11DB11D05C029E8230F55
:100800000396A11DB11D20934A0180934B01909343
:100810004C01A0934D01B0934E0180914F019091F6
:100820005001A0915101B09152010196A11DB11D3D
:1008300080934F0190935001A0935101B0935201C6
:10084000BF91AF919F918F913F912F910F900FBECC
:100850000F901F9018950895E3E9F4E083818F933A
:1008600082818F9381818F9380818F9389EB90E038
:100870009F938F938CE691E09F938F930E94C8067D
:100880008DB79EB708960FB6F8949EBF0FBE8DBF6A
:100890000895E7E9F4E083818F9382818F938181CA
:1008A0008F9380818F9380EB90E09F938F938CE662
:1008B00091E09F938F930E94C8068DB79EB70896CC
:1008C0000FB6F8949EBF0FBE8DBF0895EBE9F4E01C
:1008D00083818F9382818F9381818F9380818F9386
:1008E00084EA90E09F938F938CE691E09F938F939F
:1008F0000E94C8068DB79EB708960FB6F8949EBFA3
:100900000FBE8DBF0895109293041092940410921C
:1009100095041092960410929704109298041092E5
:10092000990410929A0410929B0410929C041092C5
:100930009D0410929E0480E29EE4A0E0B0E08093CB
:10094000A7049093A804A093A904B093AA0440E13B
:1009500057E260E070E04093AB045093AC046093C6
:10096000AD047093AE0440E45CE960E070E0409355
:10097000AF045093B0046093B1047093B2048093B9
:10098000B3049093B404A093B504B093B60480E488
:100990009FE1A0E0B0E08093B7049093B804A093E7
:1009A000B904B093BA0480E395E7A0E0B0E0809387
:1009B000BB049093BC04A093BD04B093BE0487E035
:1009C00090E09093C0048093BF041092C2041092F0
:1009D000C1041092C4041092C30421E02093C50402
:1009E0008FEF8093C6041092C7042093C80430E5AB
:1009F0003093C9043093CA0480E293E09093CC040E
:100A00008093CB0488E592E09093CE048093CD044C
:100A10001092CF042093D0042093D1042093D204C9
:100A20001092D3041092D4041092D5043093D604BB
:100A30003093D7042093D8040895CF93C091E50450
:100A400062E583E994E00E941409C81739F062E571
:100A500083E994E00E9414098093E504CF910895FE
:100A6000DB0120E030E02417350744F4FC01E20FFD
:100A7000F31FE491ED932F5F3F4FF5CF08950F9350
:100A80001F93CF93DF938C01CCEFD0E04CE150E08B
:100A900067E774E0CE010E94300580918F04909149
:100AA0009004892B59F044E150E0B80187E794E0C5
:100AB0000E94562A892B29F06C96E8CF80E090E0BE
:100AC00002C087E794E0DF91CF911F910F910895C5
:100AD0000F931F93CF93DF93DC01009779F486ED9A
:100AE00090E09F938F938CE691E09F938F930E9469
:100AF000C8060F900F900F900F902EC054960D9136
:100B00001D912D913C91579707301105D0F40C5C45
:100B10001F4F5896CD91DC915997F8010C94B52848
:100B200081E0452B462B472B09F480E0888309C0E0
:100B3000488307C05983488304C0488359836A8324
:100B40007B835A96ED91FC915B97309729F0DF916A
:100B5000CF911F910F910994DF91CF911F910F9128
:100B6000089588E391E00E943F05009731F04BE73C
:100B700050E060E070E00C9468050895009779F407
:100B800082EC90E09F938F938CE691E09F938F93FC
:100B90000E94C8060F900F900F900F900895DC01EF
:100BA0005896ED91FC9159974083518362837383EA
:100BB0005A96ED91FC915B97309709F0099408954E
:100BC0000F931F93CF93DF938B010E943F05EC019E
:100BD000009719F14C895D896E897F89C80147307A
:100BE00051056105710559F40E944A29AB01BC0108
:100BF000CE01DF91CF911F910F910C94BE050E9401
:100C00004E29AC01662757FD6095762FCE01DF9106
:100C1000CF911F910F910C9468058AEE90E09F93FD
:100C20008F938CE691E09F938F930E94C8060F905C
:100C30000F900F900F90DF91CF911F910F9108951A
:100C40001092C50023E32093C400E1ECF0E0208182
:100C500020682083208128612083E2ECF0E020815D
:100C6000266020839093E9048093E80460E070E0BC
:100C700084E896E00C94B82A1F920F920FB60F9258
:100C800011242F933F934F935F936F937F938F9391
:100C90009F93AF93BF93EF93FF938091C600E09132
:100CA000E804F091E904309709F00995FF91EF917C
:100CB000BF91AF919F918F917F916F915F914F9174
:100CC0003F912F910F900FBE0F901F90189590930A
:100CD000E9048093E80408959093E7048093E60480
:100CE0000895FC018191882339F09091C00095FF0F
:100CF000FCCF8093C600F6CF08959091C00095FF79
:100D0000FCCF8093C6000895CF93C82F0E947D0624
:100D1000E091E604F091E704309711F08C2F0995EB
:100D200080E090E0CF910895E82FE295EF70F0E039
:100D3000E058FE4FE4919091C00095FFFCCFE09306
:100D4000C6008F70E82FF0E0E058FE4FE4918091EC
:100D5000C00085FFFCCFE093C6000895EF92FF929C
:100D60000F931F93CF93DF938C017B01EC01CE0196
:100D7000801B910B8E159F0524F489910E94940687
:100D8000F6CFDF91CF911F910F91FF90EF900895D3
:100D9000CF93DF93CDB7DEB7AE01475F5F4F6F8173
:100DA00078858091BB069091BC060E94352BDF911F
:100DB000CF91089582E791E09F938F9381E991E02D
:100DC0009F938F930E94C8060F900F900F900F90E3
:100DD00093E48091C00085FD03C09093C600F9CFD5
:100DE0002FEF84E39CE0215080409040E1F700C069
:100DF000000080E58093C6002FEF84E39CE0215043
:100E000080409040E1F700C0000088E48093C60075
:100E10002FEF84E39CE0215080409040E1F700C038
:100E200000000895219A229AE0E8F0E0808180682D
:100E30008083808180628083808182608083E1E81A
:100E4000F0E08081886180838081826080838FE18F
:100E50009EE49093870080938600EFE6F0E0808127
:100E6000816080837894809106019091070190932E
:100E700089008093880080910801909109019093E6
:100E80008B0080938A0008956430710529F4909353
:100E900009018093080108956530710521F490934C
:100EA00007018093060108951F920F920FB60F92CB
:100EB00011248F939F938091060190910701909345
:100EC0008900809388008091080190910901909396
:100ED0008B0080938A009F918F910F900FBE0F908F
:100EE0001F901895681779072CF4481759071CF4B8
:100EF000CA010895CB010895681779072CF44817A3
:100F000059071CF4CA010895CB010895EF92FF928E
:100F10000F931F93261737074807590744F4E6161F
:100F2000F706080719072CF4C801B70102C0CA0167
:100F3000B9011F910F91FF90EF9008954F925F922A
:100F40006F927F928F929F92AF92BF92CF92DF92D9
:100F5000EF92FF926B017C014B015C01E894B7F8C2
:100F60002BED3FE049E45FE30E94B5272B013C01F4
:100F700020E030E040E85FE3C501B4010E946F2546
:100F80009B01AC01C701B6010E94B5276B017C0132
:100F90002BE438EC47E85DE3C501B4010E94B527B6
:100FA00023EA32E94AE75EE30E9470259B01AC0127
:100FB000C701B6010E94B5279B01AC01C301B20174
:100FC0000E946F25FF90EF90DF90CF90BF90AF9081
:100FD0009F908F907F906F905F904F9008958F9229
:100FE0009F92AF92BF92CF92DF92EF92FF92CF93F8
:100FF000DF934B015C0169017A019F775F77D1E054
:101000000E94AA2718160CF0D0E020E030E0A901D9
:10101000C501B4010E94AA2787FD0AC0C1E020E0F3
:1010200030E0A901C701B6010E94362618160CF45B
:10103000C0E020E030E0A901C501B4010E943626DD
:10104000181694F020E030E0A901C701B6010E9413
:1010500036261816ECF520E030E0A901C701B601EC
:101060000E94AA2787FFC3E0DD2329F0A501940190
:10107000C701B60104C0A7019601C501B4010E94D1
:101080003A260E949E07DD2381F09B01AC01C2300D
:1010900039F0C33029F06BED7FE089EC9FE315C098
:1010A0006BED7FE089EC9FEB10C0C13039F0C230AE
:1010B00089F42BED3FE049E450E407C02BED3FE01D
:1010C00049E450E40E94702505C00E946F2502C0CB
:1010D000C2E0C1CFDF91CF91FF90EF90DF90CF9032
:1010E000BF90AF909F908F9008950E94EF0727ECDC
:1010F0003FEC4FE557E40E94B5270E94A7260895CC
:101100008F929F92AF92BF92CF92DF92EF92FF9217
:101110000F931F93CF93DF93EC01CB01BA014801EA
:101120005901C880D980EA80FB80A70196010E94FE
:101130006F25A50194010E94B5279B01AC01C70151
:10114000B6010E947025688379838A839B83DF912F
:10115000CF911F910F91FF90EF90DF90CF90BF90B4
:10116000AF909F908F9008958F929F92AF92BF9271
:10117000CF92DF92EF92FF920F931F93CF93DF9363
:10118000EC01CB01BA016801790188849984AA84B1
:10119000BB84A50194010E946F25A70196010E94BE
:1011A000B5279B01AC01C501B4010E947025688779
:1011B00079878A879B878C809D80AE80BF80A501C0
:1011C00094010E946F25A70196010E94B5279B01FB
:1011D000AC01C501B4010E9470256C837D838E83B0
:1011E0009F8388809980AA80BB80A50194010E947A
:1011F0006F25A70196010E94B5279B01AC01C5018F
:10120000B4010E947025688379838A839B83DF9170
:10121000CF911F910F91FF90EF90DF90CF90BF90F3
:10122000AF909F908F900895282FFC0180E09E2F13
:10123000921B961738F49191892798E0880F915066
:10124000E9F7F5CF08954F925F926F927F928F9258
:101250009F92AF92BF92CF92DF92EF92FF920F9345
:101260001F93CF93DF9300D000D0CDB7DEB72B0113
:101270003C0129833A834B835C83F401AE18BF0899
:10128000C00AD10AAD8DBE8DA60195010E94C62867
:101290009B01AC01C301B2010E947228613629E7AB
:1012A00072072EEF82072FEF920764F0603A36E85C
:1012B000730731E08307910554F080EA96E8A1E0D6
:1012C000B0E007C080E699E7AEEFBFEF02C0DC01F7
:1012D000CB01E080F18002811381E80EF91E0A1F24
:1012E0001B1FE082F18202831383298D3A8D4B8D7F
:1012F0005C8DC601B5010E9472282B013C014E0C89
:101300005F1C601E711EEF89F88D80819181A28122
:10131000B381A6019501281B390B4A0B5B0BCA014F
:10132000B9012F8D38A149A15AA10E9472289B01B1
:10133000AC0169817A818B819C810E947228460E62
:10134000571E681E791EA082B182C282D382C30159
:10135000B20120E030E840E050E00E949628CA0147
:10136000B9010F900F900F900F90DF91CF911F91C7
:101370000F91FF90EF90DF90CF90BF90AF909F9034
:101380008F907F906F905F904F900895FC01208127
:10139000FB013081FC013083FB0120830895FC01B7
:1013A00020813181FB0140815181FC0151834083C7
:1013B000FB0131832083089580E090E0A3E0B3E453
:1013C0008093570490935804A0935904B0935A04FF
:1013D00008952F923F925F926F927F928F929F9289
:1013E000AF92BF92CF92DF92EF92FF920F931F9333
:1013F000CF93DF93CDB7DEB768970FB6F894DEBF13
:101400000FBECDBF0E94750F60ED77E080E090E0E9
:101410000E94BF037E0143E1E40EF11C00EA1FE0DD
:10142000512C8EE8282E83E0382E003A8FE01807E2
:1014300081F0AE014F5E5F4FBE01615F7F4FCE0115
:101440000D960E94EC0EFE013D96D70180E090E0E3
:101450002DC06CEB72E080E090E00E94BF03AE0113
:101460004F5E5F4FBE01615F7F4FCE010D960E94C0
:10147000EC0E19821A821B821C828D859E859C8BA4
:101480008B8B1D821E821F8218868F8598899E8B6A
:101490008D8B19861A861B861C8689899A89988F56
:1014A0008F8BC7CF01968330910561F1B82EA92E9D
:1014B0006D917D91819091909B0128193909690165
:1014C00037FF04C0CC24DD24C21AD30A41E4C41679
:1014D000D10444F353947F936F939F928F923F93E1
:1014E0002F931F930F93AF92BF92AEE5B2E0BF93DD
:1014F000AF933F922F920E94C8060FB6F894DEBFBA
:101500000FBECDBFDE0111965D013701FE013D9694
:101510006F01D6018D909D906D01B401882777FDF4
:101520008095982F0E94D52620E030E04AE755E4C8
:101530000E943A269B01AC01F50160817181828194
:1015400093810E947025D5016D937D938D939D931A
:101550005D01F301819291923F01CE14DF04C9F63F
:101560000150110915147CF487E392E09F938F9347
:101570008EE893E09F938F930E94C8060F900F9080
:101580000F900F904BCF0115110509F04ECF6981D7
:101590007A818B819C810E94A2267093DA046093E9
:1015A000D9046D817E818F8198850E94A2267093D7
:1015B000DC046093DB0469857A858B859C850E94B9
:1015C000A2267093DE046093DD0480E192E09F9395
:1015D0008F930EE813E01F930F930E94C80680912B
:1015E000DE048F938091DD048F938091DC048F93D0
:1015F0008091DB048F938091DA048F938091D904DA
:101600008F9387EE91E09F938F931F930F930E9488
:10161000C8060FB6F894DEBF0FBECDBF68960FB6F2
:10162000F894DEBF0FBECDBFDF91CF911F910F9118
:10163000FF90EF90DF90CF90BF90AF909F908F90F2
:101640007F906F905F903F902F9008952F923F92E0
:101650004F925F926F927F928F929F92AF92BF92C2
:10166000CF92DF92EF92FF920F931F93CF93DF936E
:1016700000D000D000D0CDB7DEB774EFC72EDD2488
:10168000D39400E010E069807A804B805C802D80EC
:101690003E80AE014B5F5F4FBE016D5F7F4FCE015D
:1016A00001960E94EE0E89819A81681A790A77FE66
:1016B00003C07194619471082FE1621671040CF0FB
:1016C0003EC04B815C81441A550A57FE03C05194B9
:1016D000419451086FE1461651048CF52D813E81ED
:1016E000221A330A37FE03C03194219431086FE186
:1016F0002616310424F501151105C1F08A0D9B1D34
:1017000097FD019695958795E40EF51EF7FE03C0AB
:101710004FEFE41AF40AF594E794280D391D37FFCA
:1017200002C02F5F3F4F3595279501C07A010F5FAB
:101730001F4F0431110561F049015C01A4CF91E014
:10174000C91AD108C114D10409F09BCF9401C50175
:101750009093E0048093DF04F092E204E092E104CD
:101760003093E4042093E30481EC91E09F938F9302
:101770000EE813E01F930F930E94C8068091E404C3
:101780008F938091E3048F938091E2048F938091F3
:10179000E1048F938091E0048F938091DF048F9315
:1017A00089E991E09F938F931F930F930E94C8063E
:1017B0000FB6F894DEBF0FBECDBF26960FB6F894D5
:1017C000DEBF0FBECDBFDF91CF911F910F91FF9074
:1017D000EF90DF90CF90BF90AF909F908F907F90D1
:1017E0006F905F904F903F902F9008950E94E9096D
:1017F0000E94260B0C94C00ECF93DF9300D000D034
:1018000000D0CDB7DEB764EF71E080E090E00E94D9
:10181000BF03AE014B5F5F4FBE016D5F7F4FCE01D7
:1018200001960E94EE0E62E070E080E090E0EFCF63
:1018300010920A0191E090930D0182E080931001D3
:1018400090931301109216018093190181E090E0AA
:1018500090930C0180930B012FEF3FEF30930F011A
:1018600020930E0190931201809311019093150122
:1018700080931401909318018093170190931B019A
:1018800080931A0108950E94180C8091D204882335
:1018900061F180911A0190911B01919581959109B7
:1018A00090931B0180931A0180911401909115016E
:1018B00091958195910990931501809314018091E0
:1018C0000E0190910F0191958195910990930F01CF
:1018D00080930E0180911101909112019195819553
:1018E000910990931201809311018091D304882370
:1018F00081F180910A0190910D0190930A018093EA
:101900000D0180910B0190910C0120910E013091FD
:101910000F0130930C0120930B0190930F018093E2
:101920000E01809113019091160190931301809301
:1019300016018091140190911501209117013091A9
:10194000180130931501209314019093180180938E
:1019500017010895CF93DF9389E693E09F938F93C8
:10196000CEE8D3E0DF93CF930E94C80680E090E0FA
:10197000A3E0B3E48093570490935804A0935904D0
:10198000B0935A048BE593E09F938F93DF93CF93AB
:101990000E94C8060E94C00E85E493E09F938F9337
:1019A000DF93CF930E94C8060E94C20E2DB73EB7A8
:1019B000245F3F4F0FB6F8943EBF0FBE2DBF882364
:1019C00009F458C084E393E09F938F93DF93CF9300
:1019D0000E94C8060F900F900F900F908091D8042E
:1019E000882309F453C08FE093E09F938F93DF9394
:1019F000CF930E94C8060E94F60B8091DE048F935D
:101A00008091DD048F938091DC048F938091DB04BF
:101A10008F938091DA048F938091D9048F9389EE0C
:101A200092E09F938F93DF93CF930E94C80680919B
:101A3000E4048F938091E3048F938091E2048F9369
:101A40008091E1048F938091E0048F938091DF0473
:101A50008F9384EC92E09F938F93DF93CF930E94B8
:101A6000C8068DB79EB748960FB6F8949EBF0FBEB6
:101A70008DBF0CC081EB92E09F938F93DF93CF9348
:101A80000E94C8060F900F900F900F9084E992E08B
:101A90009F938F938EE893E09F938F930E94C80645
:101AA0000F900F900F900F90DF91CF910C94430CFB
:101AB0004F925F926F927F928F929F92AF92BF925E
:101AC000CF92DF92EF92FF926091B3047091B404D1
:101AD0008091B5049091B604EAE04E2E512C612C11
:101AE000712CA30192010E9496282093A3053093A4
:101AF000A4054093A5055093A6056091B704709185
:101B0000B8048091B9049091BA04F8EE8F2EF3E0F6
:101B10009F2EA12CB12CA50194010E949628209300
:101B2000A7053093A8054093A9055093AA05609195
:101B3000BB047091BC048091BD049091BE04A4ECE0
:101B4000CA2EA9E0DA2EE12CF12CA70196010E9401
:101B500096282093AB053093AC054093AD05509388
:101B6000AE056091A7047091A8048091A90490919A
:101B7000AA04A30192010E9496282093860530931F
:101B8000870540938805509389056091AB04709157
:101B9000AC048091AD049091AE04A50194010E9423
:101BA000962820938A0530938B0540938C0550939B
:101BB0008D056091AF047091B0048091B104909153
:101BC000B204A70196010E94962820938E053093B7
:101BD0008F054093900550939105FF90EF90DF9013
:101BE000CF90BF90AF909F908F907F906F905F90BD
:101BF0004F900895EF92FF920F931F93CF93DF932F
:101C0000CDB7DEB72C970FB6F894DEBF0FBECDBFB1
:101C10008E01095F1F4FAE01455F5F4FBE01675FD9
:101C20007F4FC8010E94EE0E80911301FE01319694
:101C3000E80FF11DE80FF11D8F8198852091DF04D9
:101C40003091E004821B930B918380838091160175
:101C5000FE013196E80FF11DE80FF11D89859A8587
:101C60002091E1043091E204821B930B91838083E5
:101C700080911901FE013196E80FF11DE80FF11D69
:101C80008B859C852091E3043091E404821B930BA7
:101C900091838083CE0101967C01A4E1B1E080E7CD
:101CA00091E0F701619171917F014D915C911197E4
:101CB000649F9001659F300D749F300D1124FC01CD
:101CC00021933193CF011396E016F10651F72C962C
:101CD0000FB6F894DEBF0FBECDBFDF91CF911F913D
:101CE0000F91FF90EF900895CF92DF92EF92FF92C5
:101CF0000F931F93CF93DF93C0E7D1E004E611E089
:101D0000C12CD12C760169917991882777FD809536
:101D1000982F0E94D526F801619371938193919336
:101D20008F019B01AC010E94B5279B01AC01C7014B
:101D3000B6010E9470256B017C01F1E0C637DF0718
:101D400011F720E030E048EC52E40E94B52720E093
:101D500030E040E851E30E94B527AB01BC010DEC37
:101D60001CEC2CEC3CE380E691E00E948008DF91C3
:101D7000CF911F910F91FF90EF90DF90CF9008953A
:101D80000C9407120C944212EF92FF920F931F9340
:101D90000E9474121F910F91FF90EF9008958F92FF
:101DA0009F92AF92BF92CF92DF92EF92FF920F93EA
:101DB0001F93CF93DF93CDB7DEB70E94EE12DF9172
:101DC000CF911F910F91FF90EF90DF90CF90BF9038
:101DD000AF909F908F9008950C9468130C94B91352
:101DE0000C940A14CF93DF9300D000D000D0CDB76D
:101DF000DEB7AE014B5F5F4FBE016D5F7F4FCE011F
:101E000001960E94681389819A812091D9043091AA
:101E1000DA04821B930B9A8389838B819C812091A6
:101E2000DB043091DC04821B930B9C838B838D81BC
:101E30009E812091DD043091DE04821B930B9E83F2
:101E40008D8380910A01FE013196E80FF11DE80FA4
:101E5000F11D4081518120910B0130910C01429F75
:101E6000C001439F900D529F900D112490937701D4
:101E70008093760180910D01FE013196E80FF11DEE
:101E8000E80FF11D4081518120910E0130910F0129
:101E9000429FC001439F900D529F900D112490933B
:101EA00079018093780180911001FE013196E80F4D
:101EB000F11DE80FF11D40815181209111013091F8
:101EC0001201429FC001439F900D529F900D11241B
:101ED00090937B0180937A0126960FB6F894DEBF2B
:101EE0000FBECDBFDF91CF91089586E00C945D13B6
:101EF0002F923F924F925F926F927F928F929F921A
:101F0000AF92BF92CF92DF92EF92FF920F931F9307
:101F1000CF93DF9300D000D0CDB7DEB78C011B018B
:101F2000FC0180809180A280B380C480D580E6804F
:101F3000F7804084518462847384FB012081318165
:101F400042815381C501B4010E94B52769837A8318
:101F50008B839C83F1012481358146815781C701A0
:101F6000B6010E94B5279B01AC0169817A818B8102
:101F70009C810E9470259B01AC01C301B2010E94AB
:101F80006F25F8016087718782879387F10120812F
:101F9000318142815381C301B2010E94B527698317
:101FA0007A838B839C83F10120853185428553851B
:101FB000C701B6010E94B5279B01AC0169817A81F6
:101FC0008B819C810E946F259B01AC01C501B401EE
:101FD0000E947025F8016083718382839383F101ED
:101FE0002481358146815781C301B2010E94B52702
:101FF0002B013C01F1012085318542855385C501C6
:10200000B4010E94B5279B01AC01C301B2010E943B
:1020100070259B01AC01C701B6010E947025F80133
:1020200064837583868397830F900F900F900F9032
:10203000DF91CF911F910F91FF90EF90DF90CF90A4
:10204000BF90AF909F908F907F906F905F904F90D8
:102050003F902F9008958F929F92AF92BF92CF9210
:10206000DF92EF92FF920F931F93CF93DF93CDB741
:10207000DEB72C970FB6F894DEBF0FBECDBFC09071
:102080007C01D0907D01E0907E01F0907F0186E799
:10209000A82E81E0B82E8E010F5F1F4F4801F50179
:1020A000619171915F01882777FD8095982F0E943B
:1020B000D526A70196010E94B527F8016193719377
:1020C000819391938F01FCE7AF16F1E0BF0639F7DA
:1020D000B4018AEE94E00E94780F2C960FB6F89423
:1020E000DEBF0FBECDBFDF91CF911F910F91FF904B
:1020F000EF90DF90CF90BF90AF909F908F9008951A
:102100002F923F924F925F926F927F928F929F9207
:10211000AF92BF92CF92DF92EF92FF920F931F93F5
:10212000CF93DF9300D000D0CDB7DEB7C090600171
:10213000D0906101E0906201F090630120E030E016
:1021400040E152E4C701B6010E94AA27181654F4D0
:1021500020E030E044E453E4C701B6010E94362693
:1021600087FD05C080915F01882309F443C0C090BA
:102170005B01D0905C01E0905D01F0905E01A701F1
:10218000960160E070E080E89FE30E946F252B01DC
:102190003C0104E611E09AEE292E94E0392EF80174
:1021A00081909190A190B1908F01F10120813181B6
:1021B00042815381C301B2010E94B52769837A83AA
:1021C0008B839C83A7019601C501B4010E94B527AA
:1021D0009B01AC0169817A818B819C810E94702571
:1021E000F10161937193819391931F01F1E00037A5
:1021F0001F07A9F60F900F900F900F90DF91CF91CE
:102200001F910F91FF90EF90DF90CF90BF90AF9014
:102210009F908F907F906F905F904F903F902F9006
:1022200008954F925F926F927F928F929F92AF929A
:10223000BF92CF92DF92EF92FF920F931F93CF93B3
:10224000DF938090C3049090C404AA2497FCA094C8
:10225000BA2CC2EFD4E0688179818A819B810EEE2D
:1022600014E0F801C080D180E280F3809B01AC01D2
:102270000E94B5272B013C01A7019601C701B601B9
:102280000E94B5279B01AC01C301B2010E947025D9
:102290000E941C289B01AC016091EA047091EB0440
:1022A0008091EC049091ED040E947508680D791DF1
:1022B0008A1D9B1D609353017093540180935501B7
:1022C00090935601C090C104D090C204EE24D7FC74
:1022D000E094FE2C288139814A815B81F80160817C
:1022E0007181828193810E9475086C0D7D1D8E1D08
:1022F0009F1D6093570170935801809359019093EB
:102300005A01DF91CF911F910F91FF90EF90DF90D5
:10231000CF90BF90AF909F908F907F906F905F9085
:102320004F9008950F93082F23E042E06BE68091D1
:102330001E010E941618882319F08DE794E002C050
:1023400082E694E09F938F938FEA94E09F938F931C
:102350000E94C8060F900F900F900F900F91089554
:102360000F93082F22E044E06BE180911E010E9450
:102370001618882319F08DE394E002C089E194E0F7
:102380009F938F938FEA94E09F938F930E94C80648
:102390000F900F900F900F900F9108950F93082FAB
:1023A00022E044E06CE180911E010E94161888230F
:1023B00019F083EF93E002C08EEC93E09F938F932C
:1023C0008FEA94E09F938F930E94C8060F900F901E
:1023D0000F900F900F910895282F46E06BE68091A3
:1023E0001E010E94E317882319F081EB93E002C0DD
:1023F00085E993E09F938F938FEA94E09F938F9367
:102400000E94C8060F900F900F900F90089581E0E2
:102410000E94921180E00E94B01180E00E94CE11D3
:1024200080E00C94EC11EF92FF920F931F93CF93E7
:10243000DF93CDB7DEB72E970FB6F894DEBF0FBE91
:10244000CDBF8E010F5F1F4F8EE0F80111928A956C
:10245000E9F788EEE82E83E0F82E26E046E065E70F
:1024600080911E010E94811889812E960FB6F894E2
:10247000DEBF0FBECDBFDF91CF911F910F91FF90B7
:10248000EF9008950F931F93CF93DF931F92CDB7D3
:10249000DEB70E94131289838DE994E09F938F9396
:1024A0000FEA14E01F930F930E94C80661E070E0EA
:1024B000CE0101960E94AE0689E994E09F938F9326
:1024C0001F930F930E94C80681E00FB6F894DEBFF9
:1024D0000FBECDBF9981943309F080E00F90DF915A
:1024E000CF911F910F9108954F925F926F927F92BB
:1024F0008F929F92AF92BF92CF92DF92EF92FF9214
:102500000F931F93CF93DF93CDB7DEB72E970FB600
:10251000F894DEBF0FBECDBF6C015B012A0139010B
:1025200048019E012F5F3F4F8EE0F90111928A957D
:10253000E9F708EE13E04EE06BE380911E010E9484
:102540003317898190E0982F88272A81822BF60102
:10255000918380838B8190E0982F88272C81822B18
:10256000F501918380838D8190E0982F88272E81BB
:10257000822BF20191838083898590E0982F8827B0
:102580002A85822BF301918380838B8590E0982F9D
:1025900088272C85822BF401918380838D8590E0A0
:1025A000982F88272E85822BF701918380832E9682
:1025B0000FB6F894DEBF0FBECDBFDF91CF911F9154
:1025C0000F91FF90EF90DF90CF90BF90AF909F90D2
:1025D0008F907F906F905F904F9008956F927F9251
:1025E0008F929F92AF92BF92CF92DF92EF92FF9223
:1025F0000F931F93CF93DF93CDB7DEB72E970FB610
:10260000F894DEBF0FBECDBFFE013196AEE0119251
:10261000AA95E9F70E94741242E067E380911E01D7
:102620000E94D3178FE19EE40197F1F700C00000EC
:1026300041E06AE08CE00E94D317EFE1FEE43197BD
:10264000F1F700C0000008EE13E09E012F5F3F4F3E
:1026500046E063E08CE00E9433178A8190E0982F77
:1026600088272981822BF601918380838C8190E0D9
:10267000982F88272B81822BF501918380838E816F
:1026800090E0982F88272D81822BF40191838083FD
:102690002E960FB6F894DEBF0FBECDBFDF91CF915F
:1026A0001F910F91FF90EF90DF90CF90BF90AF9070
:1026B0009F908F907F906F9008950F93082F23E045
:1026C00042E06AE180911E010E9416180F91089560
:1026D000AF92BF92CF92DF92EF92FF920F931F9330
:1026E000CF93DF93CDB7DEB72E970FB6F894DEBF4A
:1026F0000FBECDBF5C016B017A019E012F5F3F4F82
:102700008EE0F90111928A95E9F708EE13E046E0B0
:1027100063E480911E010E943317298130E0322F3B
:1027200022278A81282BF501318320838B8190E039
:10273000982F88272C81822BF601918380838D81AD
:1027400090E0982F88272E81822BF7019183808338
:102750002E960FB6F894DEBF0FBECDBFDF91CF919E
:102760001F910F91FF90EF90DF90CF90BF90AF90AF
:102770000895AF92BF92CF92DF92EF92FF920F93A4
:102780001F93CF93DF93CDB7DEB72E970FB6F89494
:10279000DEBF0FBECDBF5C016B017A019E012F5FD2
:1027A0003F4F8EE0F90111928A95E9F708EE13E0A8
:1027B00046E06BE380911E010E943317298130E0CF
:1027C000322F22278A81282BF501318320838B81A8
:1027D00090E0982F88272C81822BF60191838083AB
:1027E0008D8190E0982F88272E81822BF70191838D
:1027F00080832E960FB6F894DEBF0FBECDBFDF915B
:10280000CF911F910F91FF90EF90DF90CF90BF90ED
:10281000AF900895AF92BF92CF92DF92EF92FF9266
:102820000F931F93CF93DF93CDB7DEB72E970FB6DD
:10283000F894DEBF0FBECDBF7C015B016A01FE01D3
:1028400031968EE0DF011D928A95E9F742E067E359
:1028500080911E010E94D317EFE1FEE43197F1F75A
:1028600000C0000041E06AE08CE00E94D3178FE1D5
:102870009EE40197F1F700C0000008EE13E09E010E
:102880002F5F3F4F46E063E08CE00E9433172A81C0
:1028900030E0322F22278981282BD7012D933C93BA
:1028A0008C8190E0982F88272B81822BF5019183D2
:1028B00080838E8190E0982F88272D81822BD601EE
:1028C0008D939C932E960FB6F894DEBF0FBECDBFAE
:1028D000DF91CF911F910F91FF90EF90DF90CF90FC
:1028E000BF90AF9008951092ED0181E08093EB01CD
:1028F0001092EA01E9EBF0E080818E7F8083808195
:102900008D7F808380E28093B80085E48093BC0053
:102910000895880F8093BA000895413208F03FC0AF
:102920009091ED019111FCCF91E09093ED012093F6
:10293000EB012FEF209380011092C501240F20930B
:10294000C4019093EC019091EC01880F892B809346
:10295000EC018091EA01813041F41092EA0180910A
:10296000EC018093BB0085EC01C085EE8093BC0038
:102970008091ED018130E1F38091C501841710F45D
:102980004091C50126EC31E0FB01D9018A2F821B61
:10299000841718F48D918193F9CF842F089580E0E6
:1029A00008950F93413208F046C09091ED019111C6
:1029B000FCCF92E09093ED010093EB019FEF909399
:1029C00080011092C5014093C401FB0166EC71E0E7
:1029D000DB019A2F961B941718F491919D93F9CFD0
:1029E0001092EC019091EC01880F892B8093EC01FF
:1029F0008091EA01813041F41092EA018091EC016A
:102A00008093BB0085EC01C085EE8093BC0022233F
:102A100021F08091ED018230E1F3809180018F3FC0
:102A200061F080918001803251F08091800180338B
:102A300041F483E007C081E005C080E003C082E08C
:102A400001C084E00F910895613298F42091ED0166
:102A5000243089F46093A201FC0184EA91E0DC0156
:102A60002A2F281B261718F421912D93F9CF80E0E7
:102A7000089581E0089582E008959093E70180939E
:102A8000E60108959093E9018093E8010895882371
:102A900011F085EC01C085E88093BC00089585EDB8
:102AA0008093BC008091BC0084FDFCCF1092ED01AE
:102AB000089585EC8093BC001092ED0108951F925B
:102AC0000F920FB60F9211242F933F934F935F9362
:102AD0006F937F938F939F93AF93BF93EF93FF93E6
:102AE0008091B900887F803609F49CC068F58832EF
:102AF00009F45BC090F4803109F454C038F48823A1
:102B000009F4F5C0883009F44DC0F5C0883109F4E6
:102B10004CC0803209F45DC0EEC0803409F468C056
:102B200048F4803309F455C0883309F0E4C0809339
:102B30008001A8C0803509F44FC0883509F45DC014
:102B4000883409F0D8C0D5C0883909F4C6C0A8F4C3
:102B5000883709F467C038F4883609F463C08037D1
:102B600009F460C0C8C0883809F4B7C0803909F4D6
:102B70005FC0803809F0BFC05BC0803B09F485C0EE
:102B800038F4803A09F466C0883A09F47EC0B3C0CC
:102B9000803C09F4A6C0883C09F4A3C0883B09F432
:102BA00089C0A9C08091EC0110C09091C5018091AD
:102BB000C401981770F5E091C50181E08E0F8093F4
:102BC000C501F0E0EA53FE4F80818093BB0085ECA5
:102BD00085C0809380018DC0E091C50181E08E0F9A
:102BE0008093C5018091BB00F0E0EA53FE4F8083E3
:102BF0009091C5018091C4016DC0E091C50181E053
:102C00008E0F8093C5018091BB00F0E0EA53FE4F28
:102C100080838091EB0181116CC081E08093EA0197
:102C200084EA60C083E08093ED0110928101CFCFF0
:102C300080918101803208F050C0E091810181E0F3
:102C40008E0F809381018091BB00F0E0EE57FE4F24
:102C50008083BDCF80918101803230F4E091810189
:102C6000F0E0EE57FE4F10820E944F1560918101F7
:102C700070E0E091E601F091E70182E891E00995CA
:102C8000109281010E94591536C084E08093ED01B5
:102C90001092A3011092A201E091E801F091E901E4
:102CA00009958091A201811105C081E08093A20164
:102CB0001092A401E091A30181E08E0F8093A30103
:102CC000F0E0EC55FE4F80818093BB009091A30112
:102CD0008091A201981708F47ACF85E88093BC0010
:102CE0000AC085EC8093BC001092ED0104C01092E4
:102CF00080010E944F15FF91EF91BF91AF919F917D
:102D00008F917F916F915F914F913F912F910F9094
:102D10000FBE0F901F9018951092F3011092F201C0
:102D20001092F0011092EF010C9473140E94891418
:102D30000C948C1691E09093EE018093F101109227
:102D4000F0011092EF010895242F462F613208F010
:102D500040E266EF74E00E948D141092F3018093BC
:102D6000F20108950F93082F21E04091EF0166E1F1
:102D700075E08091F1010E94D1141092F00110923F
:102D8000EF011092EE010F910895CF93DF931F9200
:102D9000CDB7DEB789838091EE01882391F08091D1
:102DA000EF018032B0F48091F001E82FF0E0EA5EAC
:102DB000FA4F998190838F5F8093F0018093EF01A8
:102DC00005C061E0CE0101960E94241581E090E0EB
:102DD00002C080E090E00F90DF91CF910895EF92D4
:102DE000FF920F931F93CF93DF938B012091EE01FE
:102DF000222359F0EC017C01E60EF71ECE15DF050B
:102E000031F089910E94C516F9CF0E942415C8019E
:102E1000DF91CF911F910F91FF90EF9008958091D6
:102E2000F2019091F301891B08959091F301809133
:102E3000F201981748F4E92FF0E0EA50FB4F808147
:102E40009F5F9093F30108958FEF0895E091F30150
:102E50008091F201E81728F4F0E0EA50FB4F8081FE
:102E600008958FEF08955F926F927F928F929F9255
:102E7000AF92BF92CF92DF92EF92FF920F931F9388
:102E8000CF93DF93682E562E942EE9010E94900373
:102E90006B017C01C00ED11EE11CF11C812C712C38
:102EA000A92CB12C891480F5862D0E949A16852DA7
:102EB0000E94C51681E00E94B216C50188199109C9
:102EC00080971CF4692D681901C060E241E0862DED
:102ED0000E94A4160E940F17882379F08E01070D17
:102EE000111D0E941517F801808373940E949003AE
:102EF000C616D706E806F90668F7892DF0E2F91537
:102F000008F480E2880ECECF872DDF91CF911F91FC
:102F10000F91FF90EF90DF90CF90BF90AF909F9078
:102F20008F907F906F905F9008950F931F9389010A
:102F30009A0141E00E9433171F910F910895EF927B
:102F4000FF920F931F93CF93DF9300D01F92CDB7C3
:102F5000DEB7142F2A833B8369830E949A16698106
:102F6000862F0E94C5162A81022FE22E3B81F32E66
:102F70008E2D801B811730F4F70181917F010E9413
:102F8000C516F6CF81E00E94B21691E0811190E063
:102F9000892F0F900F900F90DF91CF911F910F917C
:102FA000FF90EF900895CF93DF931F92CDB7DEB7D8
:102FB00049839E012F5F3F4F41E00E949F170F9072
:102FC000DF91CF910895EF92FF920F931F93CF93CC
:102FD000DF931F92CDB7DEB7182F062FF42EE22E07
:102FE00020911F0130912001AE014F5F5F4F0E9481
:102FF0009517898121E030E00F2C01C0220F0A943F
:10300000EAF7EE2019F0482F422B03C0422F4095DB
:1030100048234983602F812F0E94D3170F90DF919F
:10302000CF911F910F91FF90EF900895DF92EF9253
:10303000FF920F931F93CF93DF931F92CDB7DEB70D
:10304000F82EE62ED42E122F20911F013091200150
:10305000AE014F5F5F4F0E949517882319F14D2DE8
:1030600050E0411B51094F5F5F4FE1E0F0E002C0CB
:10307000EE0FFF1F1A95E2F73197042E01C0EE0FF5
:103080000A94EAF701C0000F4A95EAF74E2F4095DF
:1030900089814823E0234E2B49836E2D8F2D0E947A
:1030A000D31701C080E00F90DF91CF911F910F9156
:1030B000FF90EF90DF900895DF92EF92FF920F93D1
:1030C0001F93CF93DF931F92CDB7DEB7D42E790134
:1030D0009801AE014F5F5F4F0E94951761E070E06D
:1030E00001C0660FDA94EAF799819623F70190837D
:1030F0000F90DF91CF911F910F91FF90EF90DF9094
:103100000895CF92DF92EF92FF920F931F93CF9388
:10311000DF931F92CDB7DEB7C42ED22E9701AE013A
:103120004F5F5F4F0E9495178823F1F04C2D50E0C0
:103130004D1951094F5F5F4F61E070E002C0660FAB
:10314000771FDA94E2F761507109042E01C0660F0F
:103150000A94EAF72981262330E002C035952795A5
:103160004A95E2F7F80120830F90DF91CF911F91EC
:103170000F91FF90EF90DF90CF9008958F929F92E4
:10318000AF92BF92CF92DF92EF92FF920F931F9375
:10319000CF93DF93CDB7DEB7FC01408351836283C9
:1031A00073830483158326833783C086D186E286A2
:1031B000F38684869586A686B7864F855889698961
:1031C0007A89408B518B628B738B108E118E128E8D
:1031D000138E148E158E168E178E10A211A212A2A7
:1031E00013A214A215A216A217A2DF91CF911F91CC
:1031F0000F91FF90EF90DF90CF90BF90AF909F9096
:103200008F9008952F923F924F925F926F927F928C
:103210008F929F92AF92BF92CF92DF92EF92FF92E6
:103220000F931F93CF93DF93CDB7DEB76C970FB695
:10323000F894DEBF0FBECDBF1C014D8B5E8B6F8B34
:10324000788FC901B801D10150962D913D914D91D2
:103250005C915397298B3A8B4B8B5C8B0E946F252B
:103260009B01AC01F101648B758B868B978BC70139
:10327000B6010E94B527D1011C962D913D914D912B
:103280005C911F970E9470256D877E878F87988B32
:10329000D10194962D913D914D915C9197972D83FD
:1032A0003E834F835887C701B6010E94B5274B0163
:1032B0005C01F101448C558C668C778C20A131A186
:1032C00042A153A129873A874B875C87A3019201CA
:1032D0000E946F2529853A854B855C850E946F2564
:1032E000F10120813181428153810E9470259B012F
:1032F000AC01C701B6010E94B527D10158962D91A6
:103300003D914D915C915B970E94702569837A8312
:103310008B839C83A5019401C301B2010E946F2598
:103320002B013C01A501940169857A858B859C85DB
:103330000E946F2569877A878B879C87F10124819A
:10334000358146815781C701B6010E94B5279B018F
:10335000AC016D817E818F8198850E947025698F77
:103360007A8F8B8F9C8FD10118962D913D914D9125
:103370005C911B9769817A818B819C810E94702569
:103380006B017C019B01AC0169817A818B819C81FD
:103390000E943A264B015C01A701960169857A8556
:1033A0008B859C850E943A266B017C012D853E858C
:1033B0004F8558896D897E898F89988D0E946F25E8
:1033C0006D837E838F8398879B01AC01C501B40117
:1033D0000E94B5279B01AC016D857E858F859889FC
:1033E0000E9470256D877E878F87988BF101648797
:1033F0007587868797872D813E814F815885C701C4
:10340000B6010E94B5279B01AC0169897A898B8935
:103410009C890E947025D10150966D937D938D9368
:103420009C93539729813A814B815C81C501B401FA
:103430000E94B5279B01AC0169817A818B819C81B7
:103440000E946F25F101608F718F828F938FA3018E
:103450009201C501B4010E94B5279B01AC01C301D3
:10346000B2010E946F25D1015C966D937D938D937F
:103470009C935F9729813A814B815C81C701B6019A
:103480000E94B5279B01AC0169857A858B859C8557
:103490000E946F25F10160A371A382A393A3A301EE
:1034A0009201C701B6010E94B5279B01AC01698D4D
:1034B0007A8D8B8D9C8D0E946F25D10194966D9392
:1034C0007D938D939C9397976D857E858F85988945
:1034D0006C960FB6F894DEBF0FBECDBFDF91CF91D3
:1034E0001F910F91FF90EF90DF90CF90BF90AF9022
:1034F0009F908F907F906F905F904F903F902F9014
:10350000089583ED94E09F938F9382EE94E09F93D0
:103510008F930E94C8060E94580D4DEC5CEC6CEC39
:103520007DE340935E0550935F0560936005709363
:1035300061058FE892ECA5EFBCE380936205909360
:103540006305A0936405B093650580936605909329
:103550006705A0936805B093690510926A051092FB
:103560006B0510926C0510926D0510926E0510920D
:103570006F051092700510927105409336055093B7
:103580003705609338057093390580933A05909319
:103590003B05A0933C05B0933D0580933E05909379
:1035A0003F05A0934005B09341051092420510924B
:1035B000430510924405109245051092460510925D
:1035C0004705109248051092490510927605109211
:1035D0007705109278051092790510927A0510926D
:1035E0007B0510927C0510927D0510927E0510924D
:1035F0007F0510928005109281051092820510922D
:103600008305109284051092850510924E05109244
:103610004F051092500510925105109252051092CC
:1036200053051092540510925505109256051092AC
:103630005705109258051092590510925A0510928C
:103640005B0510925C0510925D050E9490036093EB
:103650002A0270932B0280932C0290932D020F90DC
:103660000F900F900F9008952F923F924F925F927C
:103670006F927F928F929F92AF92BF92CF92DF9282
:10368000EF92FF920F931F93CF93DF9300D000D060
:1036900000D0CDB7DEB73C014B015A0169018091E2
:1036A0002E0290912F02019690932F0280932E026A
:1036B000AE014F5F5F4FBE016D5F7F4FCE0105963C
:1036C0000E94EE0E6D817E81882777FD8095982F70
:1036D0000E94D52620E030E040E05FE30E94B5275D
:1036E0001B012C0160910C0270910D02882777FD5F
:1036F0008095982F0E94D52620E030E040E05FE3DF
:103700000E94B5279B01AC01C201B1010E946F2547
:103710000E94A22670930D0260930C026B817C8143
:10372000882777FD8095982F0E94D52620E030E0ED
:1037300040E05FE30E94B5271B012C0160910A0263
:1037400070910B02882777FD8095982F0E94D526CF
:1037500020E030E040E05FE30E94B5279B01AC0130
:10376000C201B1010E946F250E94A22670930B0234
:1037700060930A0269817A81882777FD8095982F66
:103780000E94D52620E030E040E05FE30E94B527AC
:103790001B012C016091080270910902882777FDB6
:1037A0008095982F0E94D52620E030E040E05FE32E
:1037B0000E94B5279B01AC01C201B1010E946F2597
:1037C0000E94A2267093090260930802A501B40129
:1037D000C3010E94EC0EF301608171818091D904D4
:1037E0009091DA04681B790B882777FD8095982FD4
:1037F0000E94D52620E030E043E053E40E943A26C0
:103800000E94A226F30171836083F40160817181BB
:103810008091DB049091DC04681B790B882777FD8D
:103820008095982F0E94D52620E030E043E053E4B5
:103830000E943A260E94A226F40171836083F5015A
:10384000608171818091DD049091DE04681B790BA9
:10385000882777FD8095982F0E94D52620E030E0BC
:1038600043E053E40E943A260E94A226F5017183A8
:1038700060836091210170E088EE93E00E948228CD
:1038800080912E0290912F026817790708F056C098
:10389000A701B801C6010E94F00EF60140815181D6
:1038A00022E030E3429FC001439F900D529F900D54
:1038B000112497FF02C08150904F80E19802812D22
:1038C000990B11244296F60191838083F80140817F
:1038D000518122E030E3429FC001439F900D529FEF
:1038E000900D112497FF02C08150904F80E1980203
:1038F000812D990B11248A5B9F4FF801918380835E
:10390000F7014081518122E030E3429FC001439F93
:10391000900D529F900D112497FF02C08150904F3F
:1039200080E19802812D990B1124825F9E4FF7014F
:103930009183808310922F0210922E0226960FB64A
:10394000F894DEBF0FBECDBFDF91CF911F910F91D5
:10395000FF90EF90DF90CF90BF90AF909F908F90AF
:103960007F906F905F904F903F902F9008954F926F
:103970005F926F927F928F929F92AF92BF92CF92FF
:10398000DF92EF92FF920F931F93CF93DF93CDB708
:10399000DEB76C970FB6F894DEBF0FBECDBF1C86A6
:1039A0001B861A86198618861F821E821D821C821B
:1039B0001B821A8219829E012F5F3F4F79018E016F
:1039C0000D5F1F4F2C5F3F4FAE01495F5F4FBE0140
:1039D000675F7F4FCE010B960E94341B0E949003BD
:1039E000698B7A8B8B8B9C8B80912A0290912B0216
:1039F000A0912C02B0912D0229893A894B895C89CA
:103A0000281B390B4A0B5B0BCA01B9010E94D32654
:103A100020E030E04AE754E40E943A266D8B7E8B2A
:103A20008F8B988F60910A0270910B02882777FD27
:103A30008095982F0E94D5262B013C0160910802A9
:103A400070910902882777FD8095982F0E94D526CE
:103A50006B017C010B851C8569857A85882777FD3C
:103A60008095982F0E94D52625E33AEF4EE85CE337
:103A70000E94B5276D877E878F87988BA701960157
:103A8000C301B2010E94E32521EE3EE245E652E485
:103A90000E94B5274B015C01A3019201C301B20151
:103AA0000E94B5272B013C01A7019601C701B60171
:103AB0000E94B5279B01AC01C301B2010E94702591
:103AC0000E941C289B01AC0160910C0270910D02B8
:103AD000882777FD8095982F298F3A8F4B8F5C8FA1
:103AE0000E94D5269058298D3A8D4B8D5C8D0E9471
:103AF0003A260E940E2621EE3EE245E652E40E945E
:103B0000B5272B013C0120E030E044EB52ECC5012D
:103B1000B4010E94362687FF10C020E030E044EB5D
:103B200052E46091F8017091F9018091FA0190914D
:103B3000FB010E94AA271816D4F020E030E044EBE5
:103B400052E4C501B4010E94AA2718160CF520E022
:103B500030E044EB52EC6091F8017091F9018091F2
:103B6000FA019091FB010E94362687FF11C08092D6
:103B70006A0590926B05A0926C05B0926D058092DB
:103B8000F8019092F901A092FA01B092FB0121C0D4
:103B9000B801882777FD8095982F0E94D52625E3C8
:103BA0003AEF4EE85CE30E94B5278B019C01CD887B
:103BB000DE88EF88F88CB501A4018EE595E00E94BF
:103BC00002196093F8017093F9018093FA019093C0
:103BD000FB016091F8017091F9018091FA019091D7
:103BE000FB010E94A2269B0177FF04C022273327F6
:103BF000261B370B2B3531054CF08D859E85AF8507
:103C0000B889B0588D879E87AF87B88BCD88DE88FE
:103C1000EF88F88C0D851E852F853889B301A201A8
:103C200086E395E00E9402196093F4017093F50118
:103C30008093F6019093F70129893A894B895C8931
:103C400020932A0230932B0240932C0250932D0292
:103C50000091F8011091F9012091FA013091FB01D6
:103C60000093930510939405209395053093960542
:103C700060939705709398058093990590939A05A2
:103C80008091260290912702A0912802B0912902EA
:103C900029893A894B895C89281B390B4A0B5B0BB4
:103CA0002333310541055105A8F10E94900360932B
:103CB00026027093270280932802909329021F9274
:103CC0001F921F921F928091F7018F938091F601AE
:103CD0008F938091F5018F938091F4018F93809160
:103CE000FB018F938091FA018F938091F9018F935B
:103CF0008091F8018F9389EB94E09F938F9382EEEC
:103D000094E09F938F930E94C8060FB6F894DEBF8D
:103D10000FBECDBF6C960FB6F894DEBF0FBECDBF01
:103D2000DF91CF911F910F91FF90EF90DF90CF9097
:103D3000BF90AF909F908F907F906F905F904F90CB
:103D400008950C94B71C0C94A22B0C94AA2B2F92C0
:103D50003F924F925F926F927F928F929F92AF921B
:103D6000BF92CF92DF92EF92FF920F931F93CF9368
:103D7000DF937C018B01EA0119018091340290915B
:103D80003502A0913602B0913702892B8A2B8B2BFA
:103D900059F40E949003609334027093350280932B
:103DA00036029093370212C10E9490034B015C01CE
:103DB0006093B3057093B4058093B5059093B605F1
:103DC0008091340290913502A0913602B091370271
:103DD000A5019401281B390B4A0B5B0BCA01B901E1
:103DE0002093AF053093B0054093B1055093B205D1
:103DF0000E94D32620E030E04AE754E40E943A26AD
:103E00002B013C018092340290923502A09236023E
:103E1000B0923702F80160817181882777FD809523
:103E2000982F0E94D52620E030E043E053E40E9422
:103E30003A26A30192010E94B5279B01AC0168813B
:103E400079818A819B810E947025688379838A8326
:103E50009B83F80162817381882777FD8095982F75
:103E60000E94D52620E030E043E053E40E943A2649
:103E7000A30192010E94B5279B01AC01F101608171
:103E80007181828193810E946F25F101608371832A
:103E900082839383F70100811181A280B3806481C2
:103EA0007581980117FF04C022273327201B310B8F
:103EB000C501B7FE04C0882799278A199B09280FD6
:103EC000391FCB0177FF04C088279927861B970BE2
:103ED000820F931F813090420CF478C0882777FDC1
:103EE0008095982F0E94D5266B017C01B50188270B
:103EF00077FD8095982F0E94D526A70196010E94F4
:103F0000E3252B013C0128E431EE4AE75FE36881B9
:103F100079818A819B810E94B5274B015C0120E059
:103F200030E044E353E4C301B2010E94B5272BED16
:103F30003FE049E450E40E943A262AE037ED43EAA4
:103F40005CE30E94B5279B01AC01C501B4010E944E
:103F50007025688379838A839B83B801882777FDDE
:103F60008095982F0E94D526A70196010E94E325EF
:103F70004B015C0128E431EE4AE75FE3F101608127
:103F80007181828193810E94B5276B017C0120E0C1
:103F900030E044E353E4C501B4010E94B5272BEDA2
:103FA0003FE049E450E40E943A262AE037ED43EA34
:103FB0005CE30E94B5279B01AC01C701B6010E94DA
:103FC0007025F1016083718382839383DF91CF91A8
:103FD0001F910F91FF90EF90DF90CF90BF90AF9027
:103FE0009F908F907F906F905F904F903F902F9019
:103FF0000895109239021092380281E8E7EBF5E05B
:10400000DF011D928A95E9F7089581E8E8E3F6E07B
:10401000DF011D928A95E9F708950E94F91F0C941B
:10402000052040913A0450913B049A012F5F3F4F85
:10403000317060913C0470913D042617370741F0C0
:10404000FA01E65CFD4F808330933B0420933A04F1
:104050000895CF93DF93EB01BC0188E396E00E94C3
:104060006F2A892B29F4209729F01982188202C01F
:1040700080E001C081E0DF91CF91089584E092E07B
:10408000EAE3F2E0DF019C011D9221503040E1F7AC
:10409000089580913A0490913C04891B08952091E1
:1040A0003C0430913D0480913A0490913B04821786
:1040B000930761F0F901E65CFD4F80812F5F3F4F70
:1040C000317030933D0420933C0408958FEF0895A0
:1040D0000E944F20811102C080E008952091380293
:1040E0003091390220383105BCF7F901E954FA4F13
:1040F00080832F5F3F4F30933902209338028D30F9
:1041000059F767EB75E088E396E00E944F2A0E941A
:10411000F91F81E00895CF92DF92EF92FF920F9303
:104120001F93CF93DF9300D0CDB7DEB70E94492015
:104130008823F1F10E9468208823D1F1AE014F5FFE
:104140005F4F68E471E088E396E00E94892A6C0181
:10415000AE014F5F5F4F68E471E080E090E00E9445
:10416000892A8C01DF92CF9225EF34E03F932F9381
:104170008EEFE82E84E0F82EFF92EF920E94C806A0
:104180001F930F932BEE34E03F932F93FF92EF9208
:104190000E94C8060FB6F894DEBF0FBECDBF011552
:1041A000110521F0B801C6010E94E0050E9405201A
:1041B0000F900F90DF91CF911F910F91FF90EF9093
:1041C000DF90CF9008950C94112083EE90E20E942E
:1041D00020060E940D200E94840378940E94900380
:1041E0006093460470934704809348049093490475
:1041F00084E695E09F938F93C6E8D5E0DF93CF9355
:104200000E94C80683E595E09F938F93DF93CF9339
:104210000E94C8060E9483048EE395E09F938F93CB
:10422000DF93CF930E94C8060E948C168FE295E020
:104230009F938F93DF93CF930E94C8060E94AA0C8E
:104240008EE195E09F938F93DF93CF930E94C806F2
:104250000E94811A8091F8019091F901A091FA01D0
:10426000B091FB0180934E0490934F04A0935004AF
:10427000B09351040E94120784E095E09F938F93BE
:10428000DF93CF930E94C8068DB79EB748960FB6AE
:10429000F8949EBF0FBE8DBF0E948B20FDCF8F92E2
:1042A0009F92AF92BF92CF92DF92EF92FF92C09017
:1042B0004E04D0904F04E0905004F09051042091AF
:1042C0009305309194054091950550919605C7014D
:1042D000B6010E946F254B015C016093420470930C
:1042E00043048093440490934504209197053091B2
:1042F00098054091990550919A05C701B6010E9411
:104300006F256B017C0160933E0470933F048093A2
:1043100040049093410420E030E040E251E4C501C4
:10432000B4010E94B5270E94A2265B0124E2A21AD2
:104330002AEFB20AB0923701A092360120E030E0B5
:1043400040E251E4C701B6010E94B5270E94A226AF
:1043500064527A4F709335016093340181E6A81658
:1043600089E0B80630F080E699E0909337018093B9
:10437000360180913601909137018835924030F4B2
:1043800088E592E090933701809336016136794059
:1043900030F080E699E0909335018093340180916C
:1043A0003401909135018835924030F488E592E0EF
:1043B000909335018093340164E070E08091360180
:1043C000909137010E94440765E070E080913401CC
:1043D00090913501FF90EF90DF90CF90BF90AF901C
:1043E0009F908F900C944407A3E1B0E0EAEFF1E2D4
:1043F0000C94CE287C011B016A01FC0117821682F5
:10440000838181FF66C3BE016F5F7F4F4B01F70160
:104410009381F10193FD859193FF81911F01882381
:1044200009F453C3853239F493FD859193FF81914B
:104430001F01853239F4B70190E00E94032B560129
:104440006501E5CF10E0512C20E02032A0F48B3242
:1044500069F030F4803259F0833269F420612CC065
:104460008D3239F0803339F4216026C02260246017
:1044700023C0286021C027FD27C030ED380F3A3017
:1044800078F426FF06C0FAE01F9F300D1124132F89
:1044900013C06AE0569E300D1124532E20620CC0CA
:1044A0008E3221F426FD11C3206406C08C3611F42F
:1044B000206802C0883641F4F10193FD859193FF95
:1044C00081911F018111C1CF9BEB980F933018F49C
:1044D0002061805E06C09BE9980F933008F0AAC166
:1044E0002F7E26FF16E02F73722E853621F4F22FD1
:1044F000F0647F2E08C0863621F4622F6068762E25
:1045000002C01111115077FE07C01C3348F4442437
:104510004394410E27E00BC0183030F4212F06C021
:1045200027E04CE3442E03C027E017E0412C56015E
:1045300074E0A70EB11CF6016081718182819381C4
:10454000042DA4010E946C296C01098100FF02C0A6
:1045500003FF06C071FC07C072FC08C0612C08C0D4
:104560003DE2632E05C02BE2622E02C090E2692E6E
:10457000802F8C7099F1662011F084E001C083E0F7
:10458000851510F0512C0BC0581A73FC08C0B701E8
:1045900080E290E00E94032B5A94C9F7F3CF662083
:1045A00029F0B701862D90E00E94032B03FD03C084
:1045B00001E915E002C00DE815E0F72DF0717F2E3E
:1045C000F8018491882309F476C271108052B701F2
:1045D00090E00E94032B0F5F1F4FF2CF77FE0FC0BA
:1045E0004C0C04FF04C08A81813309F44A941414EA
:1045F00074F5F8E0F41578F588E0482E2CC076FCC8
:104600002AC0812F90E08C159D059CF06CEFC6169A
:104610006FEFD60674F0772D7068772E0AC0E2E04F
:10462000F0E0EC0FFD1FE10FF11D8081803319F4E4
:1046300011501111F4CF77FE0EC044244394410E63
:10464000812F90E0C816D9062CF41C1904C044240C
:10465000439401C010E077FE07C01C141D043CF415
:1046600096012F5F3F4F05C025E030E002C021E0FA
:1046700030E0662011F02F5F3F4F112331F0412FC2
:1046800050E04F5F5F4F240F351F452D50E024173A
:10469000350714F4521A01C0512C872D897049F442
:1046A000552039F0B70180E290E00E94032B5A9424
:1046B000F7CF662029F0B701862D90E00E94032BEA
:1046C00073FC09C0552039F0B70180E390E00E94E7
:1046D000032B5A94F7CF77FE5FC09C2D8D2DD7FE0C
:1046E00002C090E080E0692E782E40E050E0C601E4
:1046F000841991099D878C87960126193709280D01
:10470000391D812F90E0EE27FF27E81BF90BFF876B
:10471000EE87FFEF6F167F0669F4B7018EE290E037
:104720002B8B3A8B488B598B0E94032B59894889D4
:104730003A892B89C614D70454F06C857D8566159B
:1047400077052CF4F901E40FF51F818101C080E3A6
:1047500071E0671A71084F5F5F4FEE85FF856E1637
:104760007F066CF0B70190E02B8B3A8B488B598B0E
:104770000E94032B2B893A8948895989CACF6C1426
:104780007D0439F49A81963318F4953311F404FFBB
:1047900081E3B70190E04BC08A81813309F00F7E3D
:1047A000B70190E00E94032B111105C074FE18C0E0
:1047B00085E490E017C0B7018EE290E00E94032BE1
:1047C00082E066246394680EF401E80FF11D808195
:1047D000B70190E00E94032B115041F3862DF1CFD9
:1047E00085E690E0B7010E94032BD7FC05C0C114F9
:1047F000D10439F404FF05C0D194C194D1088DE2ED
:1048000001C08BE2B70190E00E94032B80E36AE0D5
:10481000C616D1042CF08F5FFAE0CF1AD108F7CF7B
:10482000B70190E00E94032BB701C601C0960E9419
:10483000032B41C1833631F0833779F0833509F09A
:1048400058C021C0560172E0A70EB11CF60180814C
:10485000898301E010E0640114C05601F2E0AF0E5C
:10486000B11CF601C080D18026FF03C0612F70E02B
:1048700002C06FEF7FEFC6012B8B0E94642A8C0170
:104880002B892F7715C05601F2E0AF0EB11CF6014F
:10489000C080D18026FF03C0612F70E002C06FEF9F
:1048A0007FEFC6012B8B0E94442A8C012B89206844
:1048B000722E23FD1AC0852D90E008171907A8F461
:1048C000B70180E290E00E94032B5A94F4CFF601E6
:1048D00077FC859177FE81916F01B70190E00E948E
:1048E000032B51105A94015011090115110579F744
:1048F000E2C0843611F0893651F5560127FF09C010
:10490000F4E0AF0EB11CF601608171818281938168
:104910000AC0F2E0AF0EB11CF601608171818827F8
:1049200077FD8095982F022F0F7697FF08C09095FE
:104930008095709561957F4F8F4F9F4F00682AE05B
:1049400030E0A4010E94442BC82EC8183EC0022F9C
:10495000853721F40F7E2AE030E01DC0097F8F36B5
:1049600091F018F4883559F0B0C0803719F08837C5
:1049700011F0ABC0006104FF09C0046007C024FF50
:1049800008C0066006C028E030E005C020E130E045
:1049900002C020E132E0560107FF09C0F4E0AF0E8B
:1049A000B11CF601608171818281938108C0F2E0BF
:1049B000AF0EB11CF6016081718180E090E0A4012E
:1049C0000E94442BC82EC8180F7706FF0BC0202F5B
:1049D0002E7FC11650F404FF0AC002FD08C0202F2C
:1049E0002E7E05C0DC2C202F03C0DC2C01C0D12E74
:1049F00024FF0DC0FE01EC0DF11D8081803311F408
:104A0000297E09C022FF06C0D394D39404C0822F0C
:104A1000867809F0D39423FD13C020FF06C01C2D17
:104A2000D51418F4150D1D19D52CD51468F4B7013B
:104A300080E290E02B8B0E94032BD3942B89F5CF3F
:104A4000D51410F45D1801C0512C24FF12C0B70119
:104A500080E390E02B8B0E94032B2B8922FF17C051
:104A600021FF03C088E590E002C088E790E0B7012D
:104A70000CC0822F867859F021FD02C080E201C06F
:104A80008BE227FD8DE2B70190E00E94032BC11657
:104A900038F4B70180E390E00E94032B1150F7CF68
:104AA000CA94F401EC0DF11D8081B70190E00E94E1
:104AB000032BC110F5CF552009F4C2CCB70180E219
:104AC00090E00E94032B5A94F6CFF70186819781DC
:104AD00002C08FEF9FEF6396E2E10C94EA285058F2
:104AE000BB27AA270ED0FCC1EDD130F0F2D120F0C7
:104AF00031F49F3F11F41EF4BDC10EF4E095E7FBC5
:104B0000B3C1E92FFED180F3BA1762077307840798
:104B1000950718F071F49EF516C20EF4E0950B2E71
:104B2000BA2FA02D0B01B90190010C01CA01A001FF
:104B30001124FF27591B99F0593F50F4503E68F15A
:104B40001A16F040A22F232F342F4427585FF3CF9B
:104B5000469537952795A795F0405395C9F77EF46C
:104B60001F16BA0B620B730B840BBAF09150A1F0B5
:104B7000FF0FBB1F661F771F881FC2F70EC0BA0F3B
:104B8000621F731F841F48F4879577956795B795C3
:104B9000F7959E3F08F0B3CF9395880F08F09927BB
:104BA000EE0F9795879508958DD158F080E891E0A4
:104BB00009F49EEF8ED128F040E851E059F45EEF01
:104BC00009C058C1C0C1E92FE0789BD168F3092E14
:104BD000052AC1F3261737074807590738F00E2E64
:104BE00007F8E02569F0E025E0640AC0EF6307F804
:104BF000009407FADB01B9019D01DC01CA01AD0196
:104C0000EF9347D06DD10AD05F91552331F02BED52
:104C10003FE049E450FD49EC63CF0895DF93DD2781
:104C2000B92FBF7740E85FE31616170648075B0702
:104C300010F4D92F93D19F938F937F936F933AD290
:104C4000E6E7F0E01AD14CD12F913F914F915F915F
:104C500098D1DD2349F09058A2EA2AED3FE049ECD3
:104C60005FE3D0785D274DDFDF913AC1D9D008F4FA
:104C700081E008950CD034C12CD140F023D130F024
:104C800021F45F3F19F0F0C051115EC1F3C039D17A
:104C900098F39923C9F35523B1F3951B550BBB2703
:104CA000AA2762177307840738F09F5F5F4F220FB0
:104CB000331F441FAA1FA9F333D00E2E3AF0E0E8A9
:104CC00030D091505040E695001CCAF729D0FE2FF5
:104CD00027D0660F771F881FBB1F26173707480787
:104CE000AB07B0E809F0BB0B802DBF01FF2793583D
:104CF0005F4F2AF09E3F510568F0B6C025C15F3F67
:104D0000ECF3983EDCF3869577956795B795F79524
:104D10009F5FC9F7880F911D9695879597F908951C
:104D2000E1E0660F771F881FBB1F621773078407B8
:104D3000BA0720F0621B730B840BBA0BEE1F88F7C7
:104D4000E095089504D06894B111FEC00895E1D0B3
:104D500088F09F5790F0B92F9927B751A0F0D1F064
:104D6000660F771F881F991F1AF0BA95C9F712C0EE
:104D7000B13081F0E8D0B1E00895E5C0672F782F19
:104D80008827B85F39F0B93FCCF38695779567955A
:104D9000B395D9F73EF490958095709561957F4FC6
:104DA0008F4F9F4F0895E89409C097FB3EF490956C
:104DB0008095709561957F4F8F4F9F4F9923A9F0F4
:104DC000F92F96E9BB279395F69587957795679583
:104DD000B795F111F8CFFAF4BB0F11F460FF1BC0C7
:104DE0006F5F7F4F8F4F9F4F16C0882311F096E95A
:104DF00011C0772321F09EE8872F762F05C0662308
:104E000071F096E8862F70E060E02AF09A95660FC0
:104E1000771F881FDAF7880F9695879597F9089579
:104E2000990F0008550FAA0BE0E8FEEF16161706BB
:104E3000E807F907C0F012161306E407F50798F023
:104E4000621B730B840B950B39F40A2661F0232B3C
:104E5000242B252B21F408950A2609F4A140A695B8
:104E60008FEF811D811D089597F99F6780E870E09D
:104E700060E008959FEF80EC0895DF93CF931F9338
:104E80000F93FF92EF92DF927B018C01689405C033
:104E9000DA2EEF0176D0FE01E894A59125913591A7
:104EA00045915591AEF3EF012CDEFE019701A8016B
:104EB000DA9479F7DF90EF90FF900F911F91CF91E7
:104EC000DF91089500240A9416161706180609069D
:104ED000089500240A941216130614060506089570
:104EE000092E0394000C11F4882352F0BB0F40F4F8
:104EF000BF2B11F460FF04C06F5F7F4F8F4F9F4F38
:104F0000089557FD9058440F551F59F05F3F71F0B9
:104F10004795880F97FB991F61F09F3F79F0879520
:104F20000895121613061406551FF2CF4695F1DFA9
:104F300008C0161617061806991FF1CF8695710539
:104F4000610508940895E894BB2766277727CB016D
:104F500097F9089565DF08F48FEF08959B01AC0180
:104F600060E070E080E89FE385CE0BD0B9CFAADF88
:104F700028F0AFDF18F0952309F076CF7BCF11240E
:104F8000E3CFBFDFA0F3959FD1F3950F50E0551FFE
:104F9000629FF001729FBB27F00DB11D639FAA278E
:104FA000F00DB11DAA1F649F6627B00DA11D661FDD
:104FB000829F2227B00DA11D621F739FB00DA11DFE
:104FC000621F839FA00D611D221F749F3327A00DB8
:104FD000611D231F849F600D211D822F762F6A2F54
:104FE00011249F5750408AF0E1F088234AF0EE0FD9
:104FF000FF1FBB1F661F771F881F91505040A9F7E6
:105000009E3F510570F030CF9FCF5F3FECF3983E4D
:10501000DCF3869577956795B795F795E7959F5F4C
:10502000C1F7FE2B880F911D9695879597F90895E6
:1050300011F40EF41FCF41C06CDFD0F39923D9F3E4
:10504000CEF39F57550B87FF46D00024A0E640EAD9
:10505000900180585695979528F4805C660F771FCD
:10506000881F20F026173707480730F4621B730BA0
:10507000840B202931294A2BA695179407942025C3
:1050800031254A2758F7660F771F881F20F026170B
:105090003707480730F4620B730B840B200D311D6A
:1050A000411DA09581F7B901842F9158880F9695DD
:1050B000879508959B01AC0158CF9F3F31F09150E7
:1050C00020F4879577956795B795880F911D9695EC
:1050D000879597F9089591505040660F771F881F64
:1050E000D2F70895DB018F939F930E94BB28BF9155
:1050F000AF91A29F800D911DA39F900DB29F900D27
:105100001124089597FB072E16F4009407D077FD1D
:1051100009D00E94052907FC05D03EF490958195A1
:105120009F4F0895709561957F4F0895052E97FBC9
:105130001EF400940E94AD2857FD07D00E94192943
:1051400007FC03D04EF40C94AD2850954095309553
:1051500021953F4F4F4F5F4F0895909580957095E3
:1051600061957F4F8F4F9F4F0895EE0FFF1F059062
:10517000F491E02D09940E943B29A59F900DB49FC6
:10518000900DA49F800D911D11240895B7FF0C94DC
:10519000BB280E94BB28821B930B08952F923F923D
:1051A0004F925F926F927F928F929F92AF92BF9237
:1051B000CF92DF92EF92FF920F931F93CF93DF93E3
:1051C000CDB7DEB7CA1BDB0B0FB6F894DEBF0FBE40
:1051D000CDBF09942A88398848885F846E847D848D
:1051E0008C849B84AA84B984C884DF80EE80FD808F
:1051F0000C811B81AA81B981CE0FD11D0FB6F89405
:10520000DEBF0FBECDBFED010895AA1BBB1B51E150
:1052100007C0AA1FBB1FA617B70710F0A61BB70B26
:10522000881F991F5A95A9F780959095BC01CD01CB
:105230000895A1E21A2EAA1BBB1BFD010DC0AA1FD7
:10524000BB1FEE1FFF1FA217B307E407F50720F0EF
:10525000A21BB30BE40BF50B661F771F881F991F6A
:105260001A9469F760957095809590959B01AC01B3
:10527000BD01CF010895A29FB001B39FC001A39FBC
:10528000700D811D1124911DB29F700D811D11247F
:10529000911D0895662777270C94FB2CFC01882725
:1052A0009927E89421912032E9F3293010F02E302B
:1052B000C8F32B3241F02D3239F4689404C00E94B7
:1052C000B02A820F911D219120532A30C0F31EF481
:1052D000909581959F4F0895283008F027E0332757
:1052E000DA01990F311D87FD916000966105710506
:1052F00039F432602E5F3D9330E32A95E1F708954B
:105300009F3F30F080387105610509F03C5F3C5FDC
:105310003D93913008F08068911DDF93CF931F93E8
:105320000F93FF92EF92192F987F9695E92F9695FC
:105330009695E90FFF27E151FA4F99273327EE247D
:10534000FF24A701E70105900894079428F4360F7D
:10535000E71EF81E491F511D660F771F881F991FF2
:105360000694A1F70590079428F4E70EF81E491F4C
:10537000561FC11D770F881F991F661F0694A1F73E
:105380000590079428F4F80E491F561FC71FD11D1A
:10539000880F991F661F771F0694A1F70590079441
:1053A00020F4490F561FC71FD81F990F661F771F7C
:1053B000881F0694A9F784911095177041F0D6952F
:1053C000C79557954795F794E7941A95C1F7E5E97E
:1053D000F5E068941590159135916591959105903A
:1053E0007FE27395E118F10A430B560BC90BD00904
:1053F000C0F7E10CF11E431F561FC91FD01D7EF4DC
:10540000703311F48A95E6CFE894015030F0080F1C
:105410000AF40027021708F4202F2395022F7A336D
:1054200028F079E37D932A95E9F710C07D932A95BA
:1054300089F6069497956795379517951794E1180F
:10544000F10A430B560BC90BD00998F023957E91B6
:1054500073957A3308F070E37C932013B8F77E914C
:1054600070617D9330F0839571E37D9370E32A95AD
:10547000E1F71124EF90FF900F911F91CF91DF91F1
:10548000992787FD90950895FC0105906150704023
:105490000110D8F7809590958E0F9F1F0895FB01FE
:1054A000DC0101900D920020E1F70895FB01DC0181
:1054B0004150504030F08D910190801919F4002036
:1054C000B9F7881B990B0895FC0161507040019059
:1054D0000110D8F7809590958E0F9F1F0895FB01BE
:1054E00051915523A9F0BF01DC014D9145174111A0
:1054F000E1F759F4CD010190002049F04D9140159C
:105500004111C9F3FB014111EFCF81E090E0019718
:105510000895FA01A191B081009719F41097E1F074
:10552000CD01DC01CD010D90002011F4C00113C0AC
:10553000FB012191222319F02015D9F7F3CFFB01AC
:105540002191201519F41E92119606C02223C1F74D
:105550000D900020A1F7D001FA01A193B083089526
:105560007AE0979F902D879F802D910D11240895AB
:105570000F931F93CF93DF93EC018B01009731F4CE
:105580006115710519F480E090E038C06EE070E0BC
:1055900081E090E00E94B82BFC010097A1F380E825
:1055A00083830115110571F01387028781E88383D6
:1055B0008091B9069091BA06892B21F4F093BA062E
:1055C000E093B9062097C9F0D187C08783818260B4
:1055D00083838091BB069091BC06892B71F4F09374
:1055E000BC06E093BB068091BD069091BE06892B58
:1055F00021F4F093BE06E093BD06CF01DF91CF9179
:105600001F910F9108950F931F93CF93DF93182F3E
:10561000092FEB018B8181FD03C08FEF9FEF20C02D
:1056200082FF10C04E815F812C813D81421753075C
:105630007CF4E881F9819F012F5F3F4F39832883F4
:10564000108306C0E885F985812F0995892B29F7F4
:105650002E813F812F5F3F4F3F832E83812F902FDD
:10566000DF91CF911F910F910895CF93DF93EC01BC
:105670008B8188608B83CE010E94F4212B81277F50
:105680002B83DF91CF910895FA01AA27283051F199
:10569000203181F1E8946F936E7F6E5F7F4F8F4F63
:1056A0009F4FAF4FB1E03ED0B4E03CD0670F781FC2
:1056B000891F9A1FA11D680F791F8A1F911DA11DA7
:1056C0006A0F711D811D911DA11D20D009F46894E0
:1056D0003F912AE0269F11243019305D3193DEF688
:1056E000CF010895462F4770405D4193B3E00FD03E
:1056F000C9F7F6CF462F4F70405D4A3318F0495D29
:1057000031FD4052419302D0A9F7EACFB4E0A6950B
:105710009795879577956795BA95C9F7009761052D
:10572000710508959B01AC010A2E06945795479583
:1057300037952795BA95C9F7620F731F841F951F78
:10574000A01D0895F999FECF92BD81BDF89A9927C1
:1057500080B50895262FF999FECF1FBA92BD81BD5D
:1057600020BD0FB6F894FA9AF99A0FBE01960895E3
:105770000F931F93CF93DF93869F8001879F100D18
:10578000969F100D1124C8010E94D42BEC010097A4
:1057900029F0A80160E070E00E947E2ECE01DF912A
:1057A000CF911F910F910895CF93DF938230910590
:1057B00010F482E090E0E091C106F091C20620E092
:1057C00030E0A0E0B0E0309739F1408151814817D6
:1057D0005907B8F04817590771F4828193811097DF
:1057E00029F013969C938E9312972CC09093C20627
:1057F0008093C10627C02115310531F042175307A8
:1058000018F0A901DB0101C0EF019A01BD01DF0120
:105810000280F381E02DD7CF21153105F9F0281B47
:10582000390B2430310580F48A819B816115710523
:1058300021F0FB019383828304C09093C20680937E
:10584000C106FE01329644C0FE01E20FF31F8193B0
:10585000919322503109398328833AC02091BF06A1
:105860003091C006232B41F42091020130910301B5
:105870003093C0062093BF062091000130910101B2
:105880002115310541F42DB73EB7409104015091E7
:105890000501241B350BE091BF06F091C006E2170D
:1058A000F307A0F42E1B3F0B2817390778F0AC0143
:1058B0004E5F5F4F2417350748F04E0F5F1F509320
:1058C000C0064093BF068193919302C0E0E0F0E0F0
:1058D000CF01DF91CF910895CF93DF93009709F423
:1058E00087C0FC01329713821282C091C106D09109
:1058F000C206209781F420813181280F391F8091C1
:10590000BF069091C0068217930779F5F093C00601
:10591000E093BF066DC0DE0120E030E0AE17BF07A8
:1059200050F412964D915C9113979D0141155105CC
:1059300009F1DA01F3CFB383A28340815181840F4F
:10594000951F8A179B0771F48D919C911197840F75
:10595000951F02969183808312968D919C91139747
:10596000938382832115310529F4F093C206E093D5
:10597000C1063EC0D9011396FC93EE9312974D9148
:105980005D91A40FB51FEA17FB0779F4808191811F
:10599000840F951F0296D90111969C938E93828154
:1059A000938113969C938E931297E0E0F0E08A81A6
:1059B0009B81009719F0FE01EC01F9CFCE01029610
:1059C00028813981820F931F2091BF063091C00634
:1059D0002817390769F4309729F41092C2061092FB
:1059E000C10602C013821282D093C006C093BF06C4
:1059F000DF91CF910895A0E0B0E0E1E0FDE20C94EA
:105A0000D4288B016115710521F0DB018C9311966F
:105A10009C93EC015E01BFEFAB1ABB0A7501C88015
:105A20008C2D90E00E945E2E892B11F0E501F2CFC3
:105A3000EDE2CE1208C07E01F2E0EF0EF11CC9804B
:105A4000DD24D39409C02BE2C21205C07E0142E0DE
:105A5000E40EF11CC980D12CE701219743E050E00E
:105A600067E976E0CE010E94662E892BC1F4239669
:105A700045E050E062E976E0CE010E94662E892B77
:105A800009F425960115110519F0D801CD93DC9381
:105A9000D11006C160E070E080E89FE70AC143E0F2
:105AA00050E06FE876E0CE010E94662E892B59F413
:105AB0000115110509F4F9C0B2E0EB0EF11CF80173
:105AC000F182E082F2C0F70160E070E0CB01C0E05B
:105AD000D0E07F01A0EDAA2EAC0C29E02A1530F110
