:100000000C94E4020C9401030C9401030C9401037E
:100010000C9401030C9401030C9401030C94010350
:100020000C9401030C9401030C9401030C94010340
:100030000C9401030C947C050C9401030C940103B3
:100040000C9460030C9401030C9464040C9401035D
:100050000C9401030C9401030C9401030C94010310
:100060000C9487130C940103084AD73B3BCE016ED6
:1000700084BCBFFDC12F3D6C74319ABD56833DDAFF
:100080003D00C77F11BED9E4BB4C3E916BAAAABE0E
:10009000000000803F0048454C4C4F20574F524CC9
:1000A000440D0A0030313233343536373839414265
:1000B000434445460064656275673A2000636F6E8D
:1000C0006669672E6163635F6F66667365745B78EC
:1000D0002C792C7A5D3A20256C6409256C640925FD
:1000E0006C640D0A007570646174696E67206163E9
:1000F000632063616C6962726174696F6E206F6600
:1001000066736574732E2E2E0D0A00636F6E66691A
:10011000672E6779726F5F6F66667365745B782CA4
:10012000792C7A5D3A20256C6409256C6409256C6C
:10013000640D0A007570646174696E672067797276
:100140006F2063616C6962726174696F6E206F66A3
:1001500066736574732E2E2E0D0A006779726F20F8
:1001600063616C6962726174696F6E206661696C4B
:1001700065642C207265747279696E672E2E2E0D5F
:100180000A00693D256420636F756E7465723D25B4
:100190006420646966663D2564206779726F5B69D7
:1001A0005D3D25642C20707265765F6779726F5BA8
:1001B000695D3D25640D0A00696E69745F73656E43
:1001C000736F725F6F7269656E746174696F6E2EA2
:1001D0002E2E0D0A00696D7520746573742066619A
:1001E000696C6564210D0A00636F6E6669672E6134
:1001F00063635F6F66667365745B782C792C7A5DD8
:100200003A2025642025642025640D0A00636F6E62
:100210006669672E6779726F5F6F66667365745B78
:10022000782C792C7A5D3A20256420256420256479
:100230000D0A0072756E6E696E67206779726F20A5
:100240006F66667365742063616C6962726174695C
:100250006F6E2E2E2E0D0A00696D752074657374F5
:1002600020706173732E0D0A0072756E6E696E6771
:1002700020696D7520746573742E2E2E0D0A006929
:100280006D755F696E69742E2E2E0D0A00696E6998
:100290007469616C697A696E67207265736F6C75D9
:1002A00074696F6E20646976696465722E2E2E0DF6
:1002B0000A006779726F3A20007365745F736C652A
:1002C00065705F656E61626C65643A206661696C39
:1002D00065640D0A007365745F736C6565705F65B6
:1002E0006E61626C65643A20737563636573730D48
:1002F0000A007365745F66756C6C5F7363616C652F
:100300005F616363656C5F72616E67653A20666109
:10031000696C65640D0A007365745F66756C6C5F6B
:100320007363616C655F616363656C5F72616E6767
:10033000653A20737563636573730D0A00736574A2
:100340005F66756C6C5F7363616C655F6779726F14
:100350005F72616E67653A206661696C65640D0A5B
:10036000007365745F66756C6C5F7363616C655F69
:100370006779726F5F72616E67653A207375636348
:100380006573730D0A007365745F636C6F636B5FF5
:10039000736F757263653A206661696C65640D0AF6
:1003A000007365745F636C6F636B5F736F7572630B
:1003B000653A20737563636573730D0A00290D0A2E
:1003C000006D7075363035305F746573743A20286F
:1003D0003078006D7075363035303A2000726F6CB1
:1003E0006C2F70697463682F7961772025663A25D0
:1003F000663A25660D0A0061782C2061792C20610F
:100400007A2C2067782C2067792C20677A3A20256F
:10041000642025642025642025642025642025642B
:100420000D0A00696E69745F706964732E2E2E0D5B
:100430000A0067696D62616C3A20007374617274BE
:10044000696E672067696D62616C206C6F6F702EDA
:100450002E2E0D0A0067696D62616C5F696E6974AA
:100460002E2E2E0D0A006779726F5F696E69742EE9
:100470002E2E0D0A006A6F696E696E6720693263FD
:10048000206275732E2E2E0D0A00636F6E666967EB
:100490005F696E69742E2E2E0D0A000D0A0D0A7307
:1004A00070696B655F333238705F73656777617948
:1004B000207374617274696E672E2E2E0D0A006DA2
:1004C00061696E3A20006E616E00696E66000040E0
:1004D0007A10F35A00A0724E18090010A5D4E80053
:1004E00000E87648170000E40B54020000CA9A3B6B
:1004F000000000E1F50500008096980000004042F1
:100500000F000000A086010000001027000000007E
:10051000E803000000006400000000000A00000082
:1005200000000100000000002C76D888DC674F082E
:1005300023DFC1DFAE59E1B1B796E5E3E453C63A34
:10054000E651997696E8E6C28426EB898C9B62EDAB
:10055000407C6FFCEFBC9C9F40F2BAA56FA5F49065
:10056000055A2AF75C936B6CF9676DC11BFCE0E4DC
:100570000D47FEF520E6B500D0ED902E0300943532
:1005800077050080841E080000204E0A000000C885
:100590000C333333330F986E12831141EF8D2114D6
:1005A000893BE65516CFFEE6DB18D1844B381BF7A6
:1005B0007C1D901DA4BBE424203284725E22810045
:1005C000C9F124ECA1E53D2711241FBECFEFD8E0EF
:1005D000DEBFCDBF11E0A0E0B1E0E2EBF3E502C089
:1005E00005900D92A433B107D9F723E0A4E3B1E05D
:1005F00001C01D92A535B207E1F70E94DB1E0C94E5
:10060000D7290C94000084B5836084BD8DE787BD35
:1006100085B5836085BD81E080936E0008952FB716
:10062000F894609135017091360180913701909175
:1006300038012FBF08953FB7F89480913901909108
:100640003A01A0913B01B0913C0126B5A89B05C0A1
:100650002F3F19F00196A11DB11D3FBF6627782FCE
:10066000892F9A2F620F711D811D911D43E0660F26
:10067000771F881F991F4A95D1F708958F929F92EF
:10068000AF92BF92CF92DF92EF92FF924B015C014B
:100690000E940F036B017C01C80CD91CEA1CFB1CD7
:1006A0000E940F03C616D706E806F906C8F7FF90A2
:1006B000EF90DF90CF90BF90AF909F908F90089574
:1006C0001F920F920FB60F9211242F933F938F9387
:1006D0009F93AF93BF938091350190913601A09184
:1006E0003701B09138013091340126E0230F2D37C6
:1006F00020F40296A11DB11D05C029E8230F039621
:10070000A11DB11D209334018093350190933601D2
:10071000A0933701B09338018091390190913A014B
:10072000A0913B01B0913C010196A11DB11D8093A8
:10073000390190933A01A0933B01B0933C01BF91E2
:10074000AF919F918F913F912F910F900FBE0F907E
:100750001F901895089580E29EE4A0E0B0E0809399
:100760003B0290933C02A0933D02B0933E0240E1D5
:1007700057E260E070E040933F0250934002609384
:1007800041027093420240E45CE960E070E0409313
:100790004302509344026093450270934602809353
:1007A000470290934802A0934902B0934A0280E422
:1007B0009FE1A0E0B0E080934B0290934C02A093A5
:1007C0004D02B0934E0280E395E7A0E0B0E0809345
:1007D0004F0290935002A0935102B093520287E0CF
:1007E00090E090935402809353021092560210921C
:1007F0005502109258021092570221E0209359029C
:100800008FEF80935A0210925B0220935C0230E5D6
:1008100030935D0230935E0280E293E09093600239
:1008200080935F0288E592E0909362028093610278
:100830001092630220936402209365022093660263
:1008400010926702109268021092690230936A0255
:1008500030936B0220936C020895CF93C09179027C
:100860006EE38BE392E00E943C07C81739F06EE319
:100870008BE392E00E943C0780937902CF91089528
:100880006EE38BE392E00E943C0780937902089527
:100890001092C50023E32093C400E1ECF0E0208136
:1008A00020682083208128612083E2ECF0E0208111
:1008B0002660208390937D0280937C0260E070E04C
:1008C0008CEA94E00C948D271F920F920FB60F9232
:1008D00011242F933F934F935F936F937F938F9345
:1008E0009F93AF93BF93EF93FF938091C600E091E6
:1008F0007C02F0917D02309709F00995FF91EF910C
:10090000BF91AF919F918F917F916F915F914F9127
:100910003F912F910F900FBE0F901F9018959093BD
:100920007D0280937C02089590937B0280937A02EB
:100930000895FC018191882339F09091C00095FFC2
:10094000FCCF8093C600F6CF08959091C00095FF2C
:10095000FCCF8093C6000895CF93C82F0E94A504B2
:10096000E0917A02F0917B02309711F08C2F09957B
:1009700080E090E0CF910895E82FE295EF70F0E0ED
:10098000EC55FF4FE4919091C00095FFFCCFE093B0
:10099000C6008F70E82FF0E0EC55FF4FE491809196
:1009A000C00085FFFCCFE093C6000895EF92FF9250
:1009B0000F931F93CF93DF938C017B01EC01CE014A
:1009C000801B910B8E159F0524F489910E94BC0415
:1009D000F6CFDF91CF911F910F91FF90EF90089587
:1009E000CF93DF93CDB7DEB7AE01475F5F4F6F8127
:1009F000788580914D0390914E030E940A28DF91E3
:100A0000CF91089586E990E09F938F9385EB90E0D6
:100A10009F938F930E94F0040F900F900F900F9070
:100A200093E48091C00085FD03C09093C600F9CF88
:100A30002FEF84E39CE0215080409040E1F700C01C
:100A4000000080E58093C6002FEF84E39CE02150F6
:100A500080409040E1F700C0000088E48093C60029
:100A60002FEF84E39CE0215080409040E1F700C0EC
:100A700000000895219A229AE0E8F0E080818068E1
:100A80008083808180628083808182608083E1E8CE
:100A9000F0E08081886180838081826080838FE143
:100AA0009EE49093870080938600EFE6F0E08081DB
:100AB00081608083789480910601909107019093E2
:100AC000890080938800809108019091090190939A
:100AD0008B0080938A0008956430710529F4909307
:100AE00009018093080108956530710521F4909300
:100AF00007018093060108951F920F920FB60F927F
:100B000011248F939F9380910601909107019093F8
:100B10008900809388008091080190910901909349
:100B20008B0080938A009F918F910F900FBE0F9042
:100B30001F901895681779072CF4481759071CF46B
:100B4000CA010895CB010895681779072CF4481756
:100B500059071CF4CA010895CB010895EF92FF9242
:100B60000F931F93261737074807590744F4E616D3
:100B7000F706080719072CF4C801B70102C0CA011B
:100B8000B9011F910F91FF90EF9008954F925F92DE
:100B90006F927F928F929F92AF92BF92CF92DF928D
:100BA000EF92FF926B017C014B015C01E894B7F876
:100BB0002BED3FE049E45FE30E9410252B013C014F
:100BC00020E030E040E85FE3C501B4010E94CA22A2
:100BD0009B01AC01C701B6010E9410256B017C018D
:100BE0002BE438EC47E85DE3C501B4010E94102511
:100BF00023EA32E94AE75EE30E94CB229B01AC0183
:100C0000C701B6010E9410259B01AC01C301B201CE
:100C10000E94CA22FF90EF90DF90CF90BF90AF90DC
:100C20009F908F907F906F905F904F9008958F92DC
:100C30009F92AF92BF92CF92DF92EF92FF92CF93AB
:100C4000DF934B015C0169017A019F775F77D1E007
:100C50000E94052518160CF0D0E020E030E0A90134
:100C6000C501B4010E94052587FD0AC0C1E020E04E
:100C700030E0A901C701B6010E94912318160CF4B7
:100C8000C0E020E030E0A901C501B4010E94912339
:100C9000181694F020E030E0A901C701B6010E94C7
:100CA00091231816ECF520E030E0A901C701B60148
:100CB0000E94052587FFC3E0DD2329F0A5019401EB
:100CC000C701B60104C0A7019601C501B4010E9485
:100CD00095230E94C605DD2381F09B01AC01C23043
:100CE00039F0C33029F06BED7FE089EC9FE315C04C
:100CF0006BED7FE089EC9FEB10C0C13039F0C23062
:100D000089F42BED3FE049E450E407C02BED3FE0D0
:100D100049E450E40E94CB2205C00E94CA2202C0CE
:100D2000C2E0C1CFDF91CF91FF90EF90DF90CF90E5
:100D3000BF90AF909F908F9008950E94170627EC68
:100D40003FEC4FE557E40E9410250E9402240895CD
:100D50008F929F92AF92BF92CF92DF92EF92FF92CB
:100D60000F931F93CF93DF93EC01CB01BA0148019E
:100D70005901C880D980EA80FB80A70196010E94B2
:100D8000CA22A50194010E9410259B01AC01C70154
:100D9000B6010E94CB22688379838A839B83DF918B
:100DA000CF911F910F91FF90EF90DF90CF90BF9068
:100DB000AF909F908F9008958F929F92AF92BF9225
:100DC000CF92DF92EF92FF920F931F93CF93DF9317
:100DD000EC01CB01BA016801790188849984AA8465
:100DE000BB84A50194010E94CA22A70196010E941A
:100DF00010259B01AC01C501B4010E94CB2268877C
:100E000079878A879B878C809D80AE80BF80A50173
:100E100094010E94CA22A70196010E9410259B01FD
:100E2000AC01C501B4010E94CB226C837D838E830B
:100E30009F8388809980AA80BB80A50194010E942D
:100E4000CA22A70196010E9410259B01AC01C50191
:100E5000B4010E94CB22688379838A839B83DF91CC
:100E6000CF911F910F91FF90EF90DF90CF90BF90A7
:100E7000AF909F908F900895282FFC0180E09E2FC7
:100E8000921B961738F49191892798E0880F91501A
:100E9000E9F7F5CF08954F925F926F927F928F920C
:100EA0009F92AF92BF92CF92DF92EF92FF920F93F9
:100EB0001F93CF93DF9300D000D0CDB7DEB72B01C7
:100EC0003C0129833A834B835C83F401AE18BF084D
:100ED000C00AD10AAD8DBE8DA60195010E941B26C8
:100EE0009B01AC01C301B2010E94CD25613629E707
:100EF00072072EEF82072FEF920764F0603A36E810
:100F0000730731E08307910554F080EA96E8A1E089
:100F1000B0E007C080E699E7AEEFBFEF02C0DC01AA
:100F2000CB01E080F18002811381E80EF91E0A1FD7
:100F30001B1FE082F18202831383298D3A8D4B8D32
:100F40005C8DC601B5010E94CD252B013C014E0CE4
:100F50005F1C601E711EEF89F88D80819181A281D6
:100F6000B381A6019501281B390B4A0B5B0BCA0103
:100F7000B9012F8D38A149A15AA10E94CD259B010D
:100F8000AC0169817A818B819C810E94CD25460EBE
:100F9000571E681E791EA082B182C282D382C3010D
:100FA000B20120E030E840E050E00E94F125CA01A3
:100FB000B9010F900F900F900F90DF91CF911F917B
:100FC0000F91FF90EF90DF90CF90BF90AF909F90E8
:100FD0008F907F906F905F904F900895FC012081DB
:100FE000FB013081FC013083FB0120830895FC016B
:100FF00020813181FB0140815181FC01518340837B
:10100000FB0131832083089580E090E0A3E0B3E406
:101010008093370290933802A0933902B0933A023A
:1010200008952F923F925F926F927F928F929F923C
:10103000AF92BF92CF92DF92EF92FF920F931F93E6
:10104000CF93DF93CDB7DEB768970FB6F894DEBFC6
:101050000FBECDBF0E949D0D60ED77E080E090E077
:101060000E943E037E0143E1E40EF11C00EA1FE012
:10107000512C82EB282E82E0382E003A8FE01807A0
:1010800081F0AE014F5E5F4FBE01615F7F4FCE01C9
:101090000D960E94140DFE013D96D70180E090E070
:1010A0002DC06CEB72E080E090E00E943E03AE0148
:1010B0004F5E5F4FBE01615F7F4FCE010D960E9474
:1010C000140D19821A821B821C828D859E859C8B31
:1010D0008B8B1D821E821F8218868F8598899E8B1E
:1010E0008D8B19861A861B861C8689899A89988F0A
:1010F0008F8BC7CF01968330910561F1B82EA92E51
:101100006D917D91819091909B0128193909690118
:1011100037FF04C0CC24DD24C21AD30A41E4C4162C
:10112000D10444F353947F936F939F928F923F9394
:101130002F931F930F93AF92BF92A2E8B1E0BF939A
:10114000AF933F922F920E94F0040FB6F894DEBF47
:101150000FBECDBFDE0111965D013701FE013D9648
:101160006F01D6018D909D906D01B401882777FDA8
:101170008095982F0E94302420E030E04AE755E423
:101180000E9495239B01AC01F501608171818281F0
:1011900093810E94CB22D5016D937D938D939D9376
:1011A0005D01F301819291923F01CE14DF04C9F6F3
:1011B0000150110915147CF48BE591E09F938F93F6
:1011C00082EB92E09F938F930E94F0040F900F9018
:1011D0000F900F904BCF0115110509F04ECF69818B
:1011E0007A818B819C810E94FD2370936E026093B3
:1011F0006D026D817E818F8198850E94FD237093A1
:10120000700260936F0269857A858B859C850E9448
:10121000FD23709372026093710284E391E09F93C7
:101220008F9302EB12E01F930F930E94F0048091C2
:1012300072028F93809171028F93809170028F93CD
:1012400080916F028F9380916E028F9380916D02D7
:101250008F938BE091E09F938F931F930F930E9446
:10126000F0040FB6F894DEBF0FBECDBF68960FB680
:10127000F894DEBF0FBECDBFDF91CF911F910F91CC
:10128000FF90EF90DF90CF90BF90AF909F908F90A6
:101290007F906F905F903F902F9008952F923F9294
:1012A0004F925F926F927F928F929F92AF92BF9276
:1012B000CF92DF92EF92FF920F931F93CF93DF9322
:1012C00000D000D000D0CDB7DEB774EFC72EDD243C
:1012D000D39400E010E069807A804B805C802D80A0
:1012E0003E80AE014B5F5F4FBE016D5F7F4FCE0111
:1012F00001960E94160D89819A81681A790A77FEF3
:1013000003C07194619471082FE1621671040CF0AE
:101310003EC04B815C81441A550A57FE03C051946C
:10132000419451086FE1461651048CF52D813E81A0
:10133000221A330A37FE03C03194219431086FE139
:101340002616310424F501151105C1F08A0D9B1DE7
:1013500097FD019695958795E40EF51EF7FE03C05F
:101360004FEFE41AF40AF594E794280D391D37FF7E
:1013700002C02F5F3F4F3595279501C07A010F5F5F
:101380001F4F0431110561F049015C01A4CF91E0C8
:10139000C91AD108C114D10409F09BCF9401C50129
:1013A0009093740280937302F0927602E092750239
:1013B000309378022093770285EE90E09F938F938D
:1013C00002EB12E01F930F930E94F00480917802C9
:1013D0008F93809177028F93809176028F93809183
:1013E00075028F93809174028F93809173028F9313
:1013F0008DEB90E09F938F931F930F930E94F004C7
:101400000FB6F894DEBF0FBECDBF26960FB6F89488
:10141000DEBF0FBECDBFDF91CF911F910F91FF9027
:10142000EF90DF90CF90BF90AF909F908F907F9084
:101430006F905F904F903F902F9008950E941108F9
:101440000E944E090C94E80CCF93DF9300D000D09B
:1014500000D0CDB7DEB764EF71E080E090E00E948D
:101460003E03AE014B5F5F4FBE016D5F7F4FCE010C
:1014700001960E94160D62E070E080E090E0EFCFF0
:1014800010920A0191E090930D0182E08093100187
:1014900090931301109216018093190181E090E05E
:1014A00090930C0180930B012FEF3FEF30930F01CE
:1014B00020930E01909312018093110190931501D6
:1014C00080931401909318018093170190931B014E
:1014D00080931A0108950E94400A80916602882331
:1014E00061F180911A0190911B019195819591096B
:1014F00090931B0180931A01809114019091150122
:101500009195819591099093150180931401809193
:101510000E0190910F0191958195910990930F0182
:1015200080930E0180911101909112019195819506
:101530009109909312018093110180916702882391
:1015400081F180910A0190910D0190930A0180939D
:101550000D0180910B0190910C0120910E013091B1
:101560000F0130930C0120930B0190930F01809396
:101570000E018091130190911601909313018093B5
:10158000160180911401909115012091170130915D
:101590001801309315012093140190931801809342
:1015A00017010895CF93DF938DE892E09F938F9377
:1015B000C2EBD2E0DF93CF930E94F00480E090E092
:1015C000A3E0B3E48093370290933802A0933902EA
:1015D000B0933A028FE792E09F938F93DF93CF937C
:1015E0000E94F0040E94E80C89E692E09F938F939A
:1015F000DF93CF930E94F0040E94EA0C2DB73EB710
:10160000245F3F4F0FB6F8943EBF0FBE2DBF882317
:1016100009F458C088E592E09F938F93DF93CF93AE
:101620000E94F0040F900F900F900F9080916C0229
:10163000882309F453C083E392E09F938F93DF9351
:10164000CF930E94F0040E941E0A809172028F9331
:10165000809171028F93809170028F9380916F02BD
:101660008F9380916E028F9380916D028F938DE0A6
:1016700092E09F938F93DF93CF930E94F004809129
:1016800078028F93809177028F93809176028F9367
:10169000809175028F93809174028F938091730271
:1016A0008F9388EE91E09F938F93DF93CF930E9467
:1016B000F0048DB79EB748960FB6F8949EBF0FBE44
:1016C0008DBF0CC085ED91E09F938F93DF93CF93F7
:1016D0000E94F0040F900F900F900F9088EB91E014
:1016E0009F938F9382EB92E09F938F930E94F004DD
:1016F0000F900F900F900F90DF91CF910C946B0A89
:101700004F925F926F927F928F929F92AF92BF9211
:10171000CF92DF92EF92FF92609147027091480260
:101720008091490290914A02EAE04E2E512C612CA0
:10173000712CA30192010E94F1252093370330936D
:1017400038034093390350933A0360914B027091F0
:101750004C0280914D0290914E02F8EE8F2EF3E0F4
:101760009F2EA12CB12CA50194010E94F12520935C
:101770003B0330933C0340933D0350933E03609101
:101780004F02709150028091510290915202A4EC4C
:10179000CA2EA9E0DA2EE12CF12CA70196010E94B5
:1017A000F12520933F03309340034093410350932E
:1017B000420360913B0270913C0280913D02909106
:1017C0003E02A30192010E94F12520931A03309357
:1017D0001B0340931C0350931D0360913F027091C3
:1017E00040028091410290914202A50194010E9421
:1017F000F12520931E0330931F0340932003509341
:1018000021036091430270914402809145029091BE
:101810004602A70196010E94F125209322033093EE
:1018200023034093240350932503FF90EF90DF9010
:10183000CF90BF90AF909F908F907F906F905F9070
:101840004F900895EF92FF920F931F93CF93DF93E2
:10185000CDB7DEB72C970FB6F894DEBF0FBECDBF65
:101860008E01095F1F4FAE01455F5F4FBE01675F8D
:101870007F4FC8010E94160D80911301FE01319621
:10188000E80FF11DE80FF11D8F81988520917302FB
:1018900030917402821B930B918380838091160197
:1018A000FE013196E80FF11DE80FF11D89859A853B
:1018B0002091750230917602821B930B9183808375
:1018C00080911901FE013196E80FF11DE80FF11D1D
:1018D0008B859C852091770230917802821B930B37
:1018E00091838083CE0101967C01A4E1B1E08AE579
:1018F00091E0F701619171917F014D915C91119798
:10190000649F9001659F300D749F300D1124FC0180
:1019100021933193CF011396E016F10651F72C96DF
:101920000FB6F894DEBF0FBECDBFDF91CF911F91F0
:101930000F91FF90EF900895CF92DF92EF92FF9278
:101940000F931F93CF93DF93CAE5D1E00EE411E02C
:10195000C12CD12C760169917991882777FD8095EA
:10196000982F0E943024F801619371938193919391
:101970008F019B01AC010E9410259B01AC01C701A6
:10198000B6010E94CB226B017C01F1E0C036DF077B
:1019900011F720E030E048EC52E40E94102520E0EE
:1019A00030E040E851E30E941025AB01BC010DEC92
:1019B0001CEC2CEC3CE38AE491E00E94A806DF9149
:1019C000CF911F910F91FF90EF90DF90CF900895EE
:1019D0000C942F100C946A10EF92FF920F931F93A8
:1019E0000E949C101F910F91FF90EF9008958F928D
:1019F0009F92AF92BF92CF92DF92EF92FF920F939E
:101A00001F93CF93DF93CDB7DEB70E941611DF91FE
:101A1000CF911F910F91FF90EF90DF90CF90BF90EB
:101A2000AF909F908F9008950C9490110C94E111B9
:101A30000C943212CF93DF9300D000D000D0CDB7FA
:101A4000DEB7AE014B5F5F4FBE016D5F7F4FCE01D2
:101A500001960E94901189819A8120916D023091A6
:101A60006E02821B930B9A8389838B819C812091C8
:101A70006F0230917002821B930B9C838B838D814C
:101A80009E812091710230917202821B930B9E8382
:101A90008D8380910A01FE013196E80FF11DE80F58
:101AA000F11D4081518120910B0130910C01429F29
:101AB000C001439F900D529F900D1124909361019E
:101AC0008093600180910D01FE013196E80FF11DB8
:101AD000E80FF11D4081518120910E0130910F01DD
:101AE000429FC001439F900D529F900D11249093EF
:101AF00063018093620180911001FE013196E80F2D
:101B0000F11DE80FF11D40815181209111013091AB
:101B10001201429FC001439F900D529F900D1124CE
:101B2000909365018093640126960FB6F894DEBF0A
:101B30000FBECDBFDF91CF91089586E00C94851143
:101B40002F923F924F925F926F927F928F929F92CD
:101B5000AF92BF92CF92DF92EF92FF920F931F93BB
:101B6000CF93DF9300D000D0CDB7DEB78C011B013F
:101B7000FC0180809180A280B380C480D580E68003
:101B8000F7804084518462847384FB012081318119
:101B900042815381C501B4010E94102569837A8373
:101BA0008B839C83F1012481358146815781C70154
:101BB000B6010E9410259B01AC0169817A818B815D
:101BC0009C810E94CB229B01AC01C301B2010E9407
:101BD000CA22F8016087718782879387F10120818B
:101BE000318142815381C301B2010E941025698372
:101BF0007A838B839C83F1012085318542855385CF
:101C0000C701B6010E9410259B01AC0169817A8150
:101C10008B819C810E94CA229B01AC01C501B40149
:101C20000E94CB22F8016083718382839383F10148
:101C30002481358146815781C301B2010E9410255C
:101C40002B013C01F1012085318542855385C50179
:101C5000B4010E9410259B01AC01C301B2010E9496
:101C6000CB229B01AC01C701B6010E94CB22F80137
:101C700064837583868397830F900F900F900F90E6
:101C8000DF91CF911F910F91FF90EF90DF90CF9058
:101C9000BF90AF909F908F907F906F905F904F908C
:101CA0003F902F9008958F929F92AF92BF92CF92C4
:101CB000DF92EF92FF920F931F93CF93DF93CDB7F5
:101CC000DEB72C970FB6F894DEBF0FBECDBFC09025
:101CD0006601D0906701E0906801F090690180E6AC
:101CE000A82E81E0B82E8E010F5F1F4F4801F5012D
:101CF000619171915F01882777FD8095982F0E94EF
:101D00003024A70196010E941025F8016193719378
:101D1000819391938F01F6E6AF16F1E0BF0639F794
:101D2000B4018EE792E00E94A00D2C960FB6F894B5
:101D3000DEBF0FBECDBFDF91CF911F910F91FF90FE
:101D4000EF90DF90CF90BF90AF909F908F900895CD
:101D50002F923F924F925F926F927F928F929F92BB
:101D6000AF92BF92CF92DF92EF92FF920F931F93A9
:101D7000CF93DF9300D000D0CDB7DEB7C0904A013B
:101D8000D0904B01E0904C01F0904D0120E030E00C
:101D900040E152E4C701B6010E940525181654F42B
:101DA00020E030E044E453E4C701B6010E949123EF
:101DB00087FD05C080914901882309F443C0C09084
:101DC0004501D0904601E0904701F0904801A701FD
:101DD000960160E070E080E89FE30E94CA222B0138
:101DE0003C010EE411E09EE7292E92E0392EF80125
:101DF00081909190A190B1908F01F101208131816A
:101E000042815381C301B2010E94102569837A8304
:101E10008B839C83A7019601C501B4010E94102504
:101E20009B01AC0169817A818B819C810E94CB22CC
:101E3000F10161937193819391931F01F1E00A3550
:101E40001F07A9F60F900F900F900F90DF91CF9181
:101E50001F910F91FF90EF90DF90CF90BF90AF90C8
:101E60009F908F907F906F905F904F903F902F90BA
:101E700008954F925F926F927F928F929F92AF924E
:101E8000BF92CF92DF92EF92FF920F931F93CF9367
:101E9000DF938090570290905802AA2497FCA09458
:101EA000BA2CC6E8D2E0688179818A819B8102E8F8
:101EB00012E0F801C080D180E280F3809B01AC0188
:101EC0000E9410252B013C01A7019601C701B60114
:101ED0000E9410259B01AC01C301B2010E94CB22DC
:101EE0000E9477259B01AC0160917E0270917F0278
:101EF00080918002909181020E949D06680D791D5B
:101F00008A1D9B1D60933D0170933E0180933F01AC
:101F100090934001C0905502D0905602EE24D7FC19
:101F2000E094FE2C288139814A815B81F80160812F
:101F30007181828193810E949D066C0D7D1D8E1D95
:101F40009F1D6093410170934201809343019093E0
:101F50004401DF91CF911F910F91FF90EF90DF909F
:101F6000CF90BF90AF909F908F907F906F905F9039
:101F70004F9008950F93082F23E042E06BE6809185
:101F80001E010E943E16882319F081EA93E002C0E8
:101F900086E893E09F938F9383ED93E09F938F93D5
:101FA0000E94F0040F900F900F900F900F910895E2
:101FB0000F93082F22E044E06BE180911E010E9404
:101FC0003E16882319F081E693E002C08DE393E08A
:101FD0009F938F9383ED93E09F938F930E94F004E0
:101FE0000F900F900F900F900F9108950F93082F5F
:101FF00022E044E06CE180911E010E943E1688239D
:1020000019F087E193E002C082EF92E09F938F93F3
:1020100083ED93E09F938F930E94F0040F900F90B5
:102020000F900F900F910895282F46E06BE6809156
:102030001E010E940B16882319F085ED92E002C064
:1020400089EB92E09F938F9383ED93E09F938F931F
:102050000E94F0040F900F900F900F90089581E070
:102060000E94BA0F80E00E94D80F80E00E94F60F15
:1020700080E00C941410EF92FF920F931F93CF9374
:10208000DF93CDB7DEB72E970FB6F894DEBF0FBE45
:10209000CDBF8E010F5F1F4F8EE0F80111928A9520
:1020A000E9F788EEE82E83E0F82E26E046E065E7C3
:1020B00080911E010E94A91689812E960FB6F89470
:1020C000DEBF0FBECDBFDF91CF911F910F91FF906B
:1020D000EF9008950F931F93CF93DF931F92CDB787
:1020E000DEB70E943B10898381EC93E09F938F932E
:1020F00003ED13E01F930F930E94F00461E070E082
:10210000CE0101960E94D6048DEB93E09F938F93AE
:102110001F930F930E94F00481E00FB6F894DEBF86
:102120000FBECDBF9981943309F080E00F90DF910D
:10213000CF911F910F9108954F925F926F927F926E
:102140008F929F92AF92BF92CF92DF92EF92FF92C7
:102150000F931F93CF93DF93CDB7DEB72E970FB6B4
:10216000F894DEBF0FBECDBF6C015B012A013901BF
:1021700048019E012F5F3F4F8EE0F90111928A9531
:10218000E9F708EE13E04EE06BE380911E010E9438
:102190005B15898190E0982F88272A81822BF60190
:1021A000918380838B8190E0982F88272C81822BCC
:1021B000F501918380838D8190E0982F88272E816F
:1021C000822BF20191838083898590E0982F882764
:1021D0002A85822BF301918380838B8590E0982F51
:1021E00088272C85822BF401918380838D8590E054
:1021F000982F88272E85822BF701918380832E9636
:102200000FB6F894DEBF0FBECDBFDF91CF911F9107
:102210000F91FF90EF90DF90CF90BF90AF909F9085
:102220008F907F906F905F904F9008956F927F9204
:102230008F929F92AF92BF92CF92DF92EF92FF92D6
:102240000F931F93CF93DF93CDB7DEB72E970FB6C3
:10225000F894DEBF0FBECDBFFE013196AEE0119205
:10226000AA95E9F70E949C1042E067E380911E0165
:102270000E94FB158FE19EE40197F1F700C000007A
:1022800041E06AE08CE00E94FB15EFE1FEE431974B
:10229000F1F700C0000008EE13E09E012F5F3F4FF2
:1022A00046E063E08CE00E945B158A8190E0982F05
:1022B00088272981822BF601918380838C8190E08D
:1022C000982F88272B81822BF501918380838E8123
:1022D00090E0982F88272D81822BF40191838083B1
:1022E0002E960FB6F894DEBF0FBECDBFDF91CF9113
:1022F0001F910F91FF90EF90DF90CF90BF90AF9024
:102300009F908F907F906F9008950F93082F23E0F8
:1023100042E06AE180911E010E943E160F910895ED
:10232000AF92BF92CF92DF92EF92FF920F931F93E3
:10233000CF93DF93CDB7DEB72E970FB6F894DEBFFD
:102340000FBECDBF5C016B017A019E012F5F3F4F35
:102350008EE0F90111928A95E9F708EE13E046E064
:1023600063E480911E010E945B15298130E0322FC9
:1023700022278A81282BF501318320838B8190E0ED
:10238000982F88272C81822BF601918380838D8161
:1023900090E0982F88272E81822BF70191838083EC
:1023A0002E960FB6F894DEBF0FBECDBFDF91CF9152
:1023B0001F910F91FF90EF90DF90CF90BF90AF9063
:1023C0000895AF92BF92CF92DF92EF92FF920F9358
:1023D0001F93CF93DF93CDB7DEB72E970FB6F89448
:1023E000DEBF0FBECDBF5C016B017A019E012F5F86
:1023F0003F4F8EE0F90111928A95E9F708EE13E05C
:1024000046E06BE380911E010E945B15298130E05C
:10241000322F22278A81282BF501318320838B815B
:1024200090E0982F88272C81822BF601918380835E
:102430008D8190E0982F88272E81822BF701918340
:1024400080832E960FB6F894DEBF0FBECDBFDF910E
:10245000CF911F910F91FF90EF90DF90CF90BF90A1
:10246000AF900895AF92BF92CF92DF92EF92FF921A
:102470000F931F93CF93DF93CDB7DEB72E970FB691
:10248000F894DEBF0FBECDBF7C015B016A01FE0187
:1024900031968EE0DF011D928A95E9F742E067E30D
:1024A00080911E010E94FB15EFE1FEE43197F1F7E8
:1024B00000C0000041E06AE08CE00E94FB158FE163
:1024C0009EE40197F1F700C0000008EE13E09E01C2
:1024D0002F5F3F4F46E063E08CE00E945B152A814E
:1024E00030E0322F22278981282BD7012D933C936E
:1024F0008C8190E0982F88272B81822BF501918386
:1025000080838E8190E0982F88272D81822BD601A1
:102510008D939C932E960FB6F894DEBF0FBECDBF61
:10252000DF91CF911F910F91FF90EF90DF90CF90AF
:10253000BF90AF9008951092D70181E08093D501AC
:102540001092D401E9EBF0E080818E7F808380815E
:102550008D7F808380E28093B80085E48093BC0007
:102560000895880F8093BA000895413208F03FC063
:102570009091D7019111FCCF91E09093D7012093D6
:10258000D5012FEF20936A011092AF01240F209301
:10259000AE019093D6019091D601880F892B80933C
:1025A000D6018091D401813041F41092D401809100
:1025B000D6018093BB0085EC01C085EE8093BC0002
:1025C0008091D7018130E1F38091AF01841710F43D
:1025D0004091AF0120EB31E0FB01D9018A2F821B32
:1025E000841718F48D918193F9CF842F089580E09A
:1025F00008950F93413208F046C09091D701911190
:10260000FCCF92E09093D7010093D5019FEF909378
:102610006A011092AF014093AE01FB0160EB71E0E3
:10262000DB019A2F961B941718F491919D93F9CF83
:102630001092D6019091D601880F892B8093D601F4
:102640008091D401813041F41092D4018091D6015F
:102650008093BB0085EC01C085EE8093BC002223F3
:1026600021F08091D7018230E1F380916A018F3FA0
:1026700061F080916A01803251F080916A0180336B
:1026800041F483E007C081E005C080E003C082E040
:1026900001C084E00F910895613298F42091D70130
:1026A000243089F460938C01FC018EE891E0DC0118
:1026B0002A2F281B261718F421912D93F9CF80E09B
:1026C000089581E0089582E008959093D101809368
:1026D000D00108959093D3018093D2010895882367
:1026E00011F085EC01C085E88093BC00089585ED6C
:1026F0008093BC008091BC0084FDFCCF1092D70178
:10270000089585EC8093BC001092D70108951F9224
:102710000F920FB60F9211242F933F934F935F9315
:102720006F937F938F939F93AF93BF93EF93FF9399
:102730008091B900887F803609F49CC068F58832A2
:1027400009F45BC090F4803109F454C038F4882354
:1027500009F4F5C0883009F44DC0F5C0883109F49A
:102760004CC0803209F45DC0EEC0803409F468C00A
:1027700048F4803309F455C0883309F0E4C08093ED
:102780006A01A8C0803509F44FC0883509F45DC0DE
:10279000883409F0D8C0D5C0883909F4C6C0A8F477
:1027A000883709F467C038F4883609F463C0803785
:1027B00009F460C0C8C0883809F4B7C0803909F48A
:1027C0005FC0803809F0BFC05BC0803B09F485C0A2
:1027D00038F4803A09F466C0883A09F47EC0B3C080
:1027E000803C09F4A6C0883C09F4A3C0883B09F4E6
:1027F00089C0A9C08091D60110C09091AF0180918D
:10280000AE01981770F5E091AF0181E08E0F8093D3
:10281000AF01F0E0E055FE4F80818093BB0085EC76
:1028200085C080936A018DC0E091AF0181E08E0F79
:102830008093AF018091BB00F0E0E055FE4F8083B4
:102840009091AF018091AE016DC0E091AF0181E048
:102850008E0F8093AF018091BB00F0E0E055FE4FFA
:1028600080838091D50181116CC081E08093D40177
:1028700084EA60C083E08093D70110926B01CFCFD0
:1028800080916B01803208F050C0E0916B0181E0D3
:102890008E0F80936B018091BB00F0E0E459FE4FF6
:1028A0008083BDCF80916B01803230F4E0916B0169
:1028B000F0E0E459FE4F10820E94771360916B01A3
:1028C00070E0E091D001F091D1018CE691E00995A2
:1028D00010926B010E94811336C084E08093D7016F
:1028E00010928D0110928C01E091D201F091D301F0
:1028F000099580918C01811105C081E080938C0144
:1029000010928E01E0918D0181E08E0F80938D01F8
:10291000F0E0E257FE4F80818093BB0090918D01E3
:1029200080918C01981708F47ACF85E88093BC00D9
:102930000AC085EC8093BC001092D70104C01092AD
:102940006A010E947713FF91EF91BF91AF919F9120
:102950008F917F916F915F914F913F912F910F9048
:102960000FBE0F901F9018951092DD011092DC01A0
:102970001092DA011092D9010C949B120E94B112AC
:102980000C94B41491E09093D8018093DB011092E1
:10299000DA011092D9010895242F462F613208F0F0
:1029A00040E26AE872E00E94B5121092DD01809365
:1029B000DC0108950F93082F21E04091D9016AEAC4
:1029C00072E08091DB010E94F9121092DA011092FC
:1029D000D9011092D8010F910895CF93DF931F92E0
:1029E000CDB7DEB789838091D801882391F080919B
:1029F000D9018032B0F48091DA01E82FF0E0E65599
:102A0000FD4F998190838F5F8093DA018093D90184
:102A100005C061E0CE0101960E944C1381E090E078
:102A200002C080E090E00F90DF91CF910895EF9287
:102A3000FF920F931F93CF93DF938B012091D801C7
:102A4000222359F0EC017C01E60EF71ECE15DF05BE
:102A500031F089910E94ED14F9CF0E944C13C80106
:102A6000DF91CF911F910F91FF90EF90089580918A
:102A7000DC019091DD01891B08959091DD01809129
:102A8000DC01981748F4E92FF0E0E657FD4F80810C
:102A90009F5F9093DD0108958FEF0895E091DD0130
:102AA0008091DC01E81728F4F0E0E657FD4F8081C3
:102AB00008958FEF08955F926F927F928F929F9209
:102AC000AF92BF92CF92DF92EF92FF920F931F933C
:102AD000CF93DF93682E562E942EE9010E940F03A8
:102AE0006B017C01C00ED11EE11CF11C812C712CEC
:102AF000A92CB12C891480F5862D0E94C214852D35
:102B00000E94ED1481E00E94DA14C5018819910930
:102B100080971CF4692D681901C060E241E0862DA0
:102B20000E94CC140E943715882379F08E01070D7E
:102B3000111D0E943D15F801808373940E940F03BC
:102B4000C616D706E806F90668F7892DF0E2F915EA
:102B500008F480E2880ECECF872DDF91CF911F91B0
:102B60000F91FF90EF90DF90CF90BF90AF909F902C
:102B70008F907F906F905F9008950F931F938901BE
:102B80009A0141E00E945B151F910F910895EF9209
:102B9000FF920F931F93CF93DF9300D01F92CDB777
:102BA000DEB7142F2A833B8369830E94C214698194
:102BB000862F0E94ED142A81022FE22E3B81F32EF4
:102BC0008E2D801B811730F4F70181917F010E94C7
:102BD000ED14F6CF81E00E94DA1491E0811190E0CB
:102BE000892F0F900F900F90DF91CF911F910F9130
:102BF000FF90EF900895CF93DF931F92CDB7DEB78C
:102C000049839E012F5F3F4F41E00E94C7150F90FF
:102C1000DF91CF910895EF92FF920F931F93CF937F
:102C2000DF931F92CDB7DEB7182F062FF42EE22EBA
:102C300020911F0130912001AE014F5F5F4F0E9434
:102C4000BD15898121E030E00F2C01C0220F0A94CC
:102C5000EAF7EE2019F0482F422B03C0422F40958F
:102C600048234983602F812F0E94FB150F90DF912D
:102C7000CF911F910F91FF90EF900895DF92EF9207
:102C8000FF920F931F93CF93DF931F92CDB7DEB7C1
:102C9000F82EE62ED42E122F20911F013091200104
:102CA000AE014F5F5F4F0E94BD15882319F14D2D76
:102CB00050E0411B51094F5F5F4FE1E0F0E002C07F
:102CC000EE0FFF1F1A95E2F73197042E01C0EE0FA9
:102CD0000A94EAF701C0000F4A95EAF74E2F409593
:102CE00089814823E0234E2B49836E2D8F2D0E942E
:102CF000FB1501C080E00F90DF91CF911F910F91E4
:102D0000FF90EF90DF900895DF92EF92FF920F9384
:102D10001F93CF93DF931F92CDB7DEB7D42E7901E7
:102D20009801AE014F5F5F4F0E94BD1561E070E0FA
:102D300001C0660FDA94EAF799819623F701908330
:102D40000F90DF91CF911F910F91FF90EF90DF9047
:102D50000895CF92DF92EF92FF920F931F93CF933C
:102D6000DF931F92CDB7DEB7C42ED22E9701AE01EE
:102D70004F5F5F4F0E94BD158823F1F04C2D50E04E
:102D80004D1951094F5F5F4F61E070E002C0660F5F
:102D9000771FDA94E2F761507109042E01C0660FC3
:102DA0000A94EAF72981262330E002C03595279559
:102DB0004A95E2F7F80120830F90DF91CF911F91A0
:102DC0000F91FF90EF90DF90CF9008958F929F9298
:102DD000AF92BF92CF92DF92EF92FF920F931F9329
:102DE000CF93DF93CDB7DEB7FC014083518362837D
:102DF00073830483158326833783C086D186E28656
:102E0000F38684869586A686B7864F855889698914
:102E10007A89408B518B628B738B108E118E128E40
:102E2000138E148E158E168E178E10A211A212A25A
:102E300013A214A215A216A217A2DF91CF911F917F
:102E40000F91FF90EF90DF90CF90BF90AF909F9049
:102E50008F9008952F923F924F925F926F927F9240
:102E60008F929F92AF92BF92CF92DF92EF92FF929A
:102E70000F931F93CF93DF93CDB7DEB76C970FB649
:102E8000F894DEBF0FBECDBF1C014D8B5E8B6F8BE8
:102E9000788FC901B801D10150962D913D914D9186
:102EA0005C915397298B3A8B4B8B5C8B0E94CA2287
:102EB0009B01AC01F101648B758B868B978BC701ED
:102EC000B6010E941025D1011C962D913D914D9186
:102ED0005C911F970E94CB226D877E878F87988B8E
:102EE000D10194962D913D914D915C9197972D83B1
:102EF0003E834F835887C701B6010E9410254B01BE
:102F00005C01F101448C558C668C778C20A131A139
:102F100042A153A129873A874B875C87A30192017D
:102F20000E94CA2229853A854B855C850E94CA2267
:102F3000F10120813181428153810E94CB229B018A
:102F4000AC01C701B6010E941025D10158962D9100
:102F50003D914D915C915B970E94CB2269837A836E
:102F60008B839C83A5019401C301B2010E94CA22F4
:102F70002B013C01A501940169857A858B859C858F
:102F80000E94CA2269877A878B879C87F1012481F6
:102F9000358146815781C701B6010E9410259B01EA
:102FA000AC016D817E818F8198850E94CB22698FD3
:102FB0007A8F8B8F9C8FD10118962D913D914D91D9
:102FC0005C911B9769817A818B819C810E94CB22C5
:102FD0006B017C019B01AC0169817A818B819C81B1
:102FE0000E9495234B015C01A701960169857A85B2
:102FF0008B859C850E9495236B017C012D853E85E8
:103000004F8558896D897E898F89988D0E94CA2243
:103010006D837E838F8398879B01AC01C501B401CA
:103020000E9410259B01AC016D857E858F85988956
:103030000E94CB226D877E878F87988BF1016487F2
:103040007587868797872D813E814F815885C70177
:10305000B6010E9410259B01AC0169897A898B8990
:103060009C890E94CB22D10150966D937D938D93C4
:103070009C93539729813A814B815C81C501B401AE
:103080000E9410259B01AC0169817A818B819C8112
:103090000E94CA22F101608F718F828F938FA301EA
:1030A0009201C501B4010E9410259B01AC01C3012E
:1030B000B2010E94CA22D1015C966D937D938D93DB
:1030C0009C935F9729813A814B815C81C701B6014E
:1030D0000E9410259B01AC0169857A858B859C85B2
:1030E0000E94CA22F10160A371A382A393A3A3014A
:1030F0009201C701B6010E9410259B01AC01698DA8
:103100007A8D8B8D9C8D0E94CA22D10194966D93ED
:103110007D938D939C9397976D857E858F859889F8
:103120006C960FB6F894DEBF0FBECDBFDF91CF9186
:103130001F910F91FF90EF90DF90CF90BF90AF90D5
:103140009F908F907F906F905F904F903F902F90C7
:10315000089583E294E09F938F9382E394E09F939A
:103160008F930E94F0040E94800B4DEC5CEC6CECA1
:103170007DE34093F2025093F3026093F402709364
:10318000F5028FE892ECA5EFBCE38093F6029093F2
:10319000F702A093F802B093F9028093FA02909399
:1031A000FB02A093FC02B093FD021092FE0210926B
:1031B000FF0210920003109201031092020310927A
:1031C000030310920403109205034093CA02509324
:1031D000CB026093CC027093CD028093CE02909389
:1031E000CF02A093D002B093D1028093D2029093E9
:1031F000D302A093D402B093D5021092D6021092BB
:10320000D7021092D8021092D9021092DA021092CC
:10321000DB021092DC021092DD0210920A0310927F
:103220000B0310920C0310920D0310920E031092D8
:103230000F031092100310921103109212031092B8
:103240001303109214031092150310921603109298
:10325000170310921803109219031092E2021092B1
:10326000E3021092E4021092E5021092E60210923C
:10327000E7021092E8021092E9021092EA0210921C
:10328000EB021092EC021092ED021092EE021092FC
:10329000EF021092F0021092F1020E940F0360936D
:1032A00010027093110280931202909313020F90F8
:1032B0000F900F900F9008952F923F924F925F9230
:1032C0006F927F928F929F92AF92BF92CF92DF9236
:1032D000EF92FF920F931F93CF93DF9300D000D014
:1032E00000D0CDB7DEB73C014B015A016901809196
:1032F0001402909115020196909315028093140286
:10330000AE014F5F5F4FBE016D5F7F4FCE010596EF
:103310000E94160D6D817E81882777FD8095982FFC
:103320000E94302420E030E040E05FE30E9410255E
:103330001B012C016091F6017091F701882777FD40
:103340008095982F0E94302420E030E040E05FE339
:103350000E9410259B01AC01C201B1010E94CA224A
:103360000E94FD237093F7016093F6016B817C81CD
:10337000882777FD8095982F0E94302420E030E048
:1033800040E05FE30E9410251B012C016091F401D5
:103390007091F501882777FD8095982F0E94302441
:1033A00020E030E040E05FE30E9410259B01AC018B
:1033B000C201B1010E94CA220E94FD237093F5014F
:1033C0006093F40169817A81882777FD8095982F31
:1033D0000E94302420E030E040E05FE30E941025AE
:1033E0001B012C016091F2017091F301882777FD98
:1033F0008095982F0E94302420E030E040E05FE389
:103400000E9410259B01AC01C201B1010E94CA2299
:103410000E94FD237093F3016093F201A501B401B2
:10342000C3010E94140DF3016081718180916D02CE
:1034300090916E02681B790B882777FD8095982FF5
:103440000E94302420E030E043E053E40E949523C2
:103450000E94FD23F30171836083F4016081718117
:1034600080916F0290917002681B790B882777FD1D
:103470008095982F0E94302420E030E043E053E410
:103480000E9495230E94FD23F40171836083F5015E
:10349000608171818091710290917202681B790B39
:1034A000882777FD8095982F0E94302420E030E017
:1034B00043E053E40E9495230E94FD23F5017183AC
:1034C00060836091210170E088EE93E00E94DD2529
:1034D00080911402909115026817790708F056C080
:1034E000A701B801C6010E94180DF6014081518163
:1034F00022E030E3429FC001439F900D529F900D08
:10350000112497FF02C08150904F80E19802812DD5
:10351000990B11244296F60191838083F801408132
:10352000518122E030E3429FC001439F900D529FA2
:10353000900D112497FF02C08150904F80E19802B6
:10354000812D990B11248A5B9F4FF8019183808311
:10355000F7014081518122E030E3429FC001439F47
:10356000900D529F900D112497FF02C08150904FF3
:1035700080E19802812D990B1124825F9E4FF70103
:1035800091838083109215021092140226960FB632
:10359000F894DEBF0FBECDBFDF91CF911F910F9189
:1035A000FF90EF90DF90CF90BF90AF909F908F9063
:1035B0007F906F905F904F903F902F9008954F9223
:1035C0005F926F927F928F929F92AF92BF92CF92B3
:1035D000DF92EF92FF920F931F93CF93DF93CDB7BC
:1035E000DEB76C970FB6F894DEBF0FBECDBF1C865A
:1035F0001B861A86198618861F821E821D821C82CF
:103600001B821A8219829E012F5F3F4F79018E0122
:103610000D5F1F4F2C5F3F4FAE01495F5F4FBE01F3
:10362000675F7F4FCE010B960E945C190E940F03CB
:10363000698B7A8B8B8B9C8B8091100290911102FD
:10364000A0911202B091130229893A894B895C89B1
:10365000281B390B4A0B5B0BCA01B90128852F9334
:103660002F812F932A852F9329852F932C852F9394
:103670002B852F932091F3012F932091F2012F930B
:103680002091F5012F932091F4012F932091F701C0
:103690002F932091F6012F9327EF33E03F932F9341
:1036A00022E334E03F932F93698F7A8F8B8F9C8F27
:1036B0000E94F004698D7A8D8B8D9C8D0E942E2442
:1036C00020E030E04AE754E40E9495236D8B7E8B26
:1036D0008F8B988F6091F4017091F501882777FDA9
:1036E0008095982F0E9430242B013C016091F201BB
:1036F0007091F301882777FD8095982F0E943024E0
:103700006B017C010B851C8569857A85882777FD8F
:103710008095982F0E94302425E33AEF4EE85CE331
:103720000E9410256D877E878F87988BA701960151
:10373000C301B2010E943E2321EE3EE245E652E47F
:103740000E9410254B015C01A3019201C301B2014B
:103750000E9410252B013C01A7019601C701B6016B
:103760000E9410259B01AC01C301B2010E94CB2233
:103770000E9477259B01AC016091F6017091F701E1
:10378000882777FD8095982F298F3A8F4B8F5C8FF4
:103790000E9430249058298D3A8D4B8D5C8D0E946B
:1037A00095230E94692321EE3EE245E652E40E9401
:1037B00010252B013C010FB6F894DEBF0FBECDBF24
:1037C00020E030E044EB52ECC501B4010E949123AB
:1037D00087FF10C020E030E044EB52E46091E2014A
:1037E0007091E3018091E4019091E5010E9405252B
:1037F0001816D4F020E030E044EB52E4C501B401E7
:103800000E94052518160CF520E030E044EB52EC40
:103810006091E2017091E3018091E4019091E501F2
:103820000E94912387FF11C08092FE029092FF02B6
:10383000A0920003B09201038092E2019092E30112
:10384000A092E401B092E50121C0B801882777FD7C
:103850008095982F0E94302425E33AEF4EE85CE3F0
:103860000E9410258B019C01CD88DE88EF88F88CA2
:10387000B501A40182EF92E00E942A176093E20151
:103880007093E3018093E4019093E5016091E2017C
:103890007091E3018091E4019091E5010E94FD2384
:1038A0009B0177FF04C022273327261B370B2B35BC
:1038B00031054CF06D857E858F85988990586D8790
:1038C0007E878F87988BCD88DE88EF88F88C0D8572
:1038D0001E852F853889B301A2018AEC92E00E94EF
:1038E0002A179B01462F532F682F792F4093DE0113
:1038F0005093DF016093E0017093E10149895A8997
:103900006B897C89409310025093110260931202DC
:1039100070931302E091E201F091E301A091E401C0
:10392000B091E5017F018D01A701B8014093270304
:10393000509328036093290370932A038C01A901F3
:10394000B80140932B0350932C0360932D03709385
:103950002E031F921F921F921F929F938F933F934C
:103960002F93BF93AF93FF93EF938DED93E09F93CE
:103970008F9382E394E09F938F930E94F0040FB69D
:10398000F894DEBF0FBECDBF6C960FB6F894DEBFC5
:103990000FBECDBFDF91CF911F910F91FF90EF90A0
:1039A000DF90CF90BF90AF909F908F907F906F905F
:1039B0005F904F9008950C94DF1A0C9477280C9424
:1039C0007F282F923F924F925F926F927F928F92B9
:1039D0009F92AF92BF92CF92DF92EF92FF920F939E
:1039E0001F93CF93DF937C018B01EA011901809132
:1039F0001A0290911B02A0911C02B0911D02892B0A
:103A00008A2B8B2B59F40E940F0360931A02709338
:103A10001B0280931C0290931D0212C10E940F038F
:103A20004B015C0160934703709348038093490303
:103A300090934A0380911A0290911B02A0911C025C
:103A4000B0911D02A5019401281B390B4A0B5B0B99
:103A5000CA01B901209343033093440340934503C3
:103A6000509346030E942E2420E030E04AE754E4BD
:103A70000E9495232B013C0180921A0290921B0216
:103A8000A0921C02B0921D02F8016081718188270A
:103A900077FD8095982F0E94302420E030E043E0AD
:103AA00053E40E949523A30192010E9410259B01DB
:103AB000AC01688179818A819B810E94CB226883D5
:103AC00079838A839B83F80162817381882777FDDC
:103AD0008095982F0E94302420E030E043E053E4AA
:103AE0000E949523A30192010E9410259B01AC0125
:103AF000F10160817181828193810E94CA22F1016A
:103B00006083718382839383F70100811181A28096
:103B1000B38064817581980117FF04C02227332781
:103B2000201B310BC501B7FE04C0882799278A19CD
:103B30009B09280F391FCB0177FF04C088279927DD
:103B4000861B970B820F931F813090420CF478C034
:103B5000882777FD8095982F0E9430246B017C0187
:103B6000B501882777FD8095982F0E943024A70102
:103B700096010E943E232B013C0128E431EE4AE7E6
:103B80005FE3688179818A819B810E9410254B01C6
:103B90005C0120E030E044E353E4C301B2010E9441
:103BA00010252BED3FE049E450E40E9495232AE0E4
:103BB00037ED43EA5CE30E9410259B01AC01C5018F
:103BC000B4010E94CB22688379838A839B83B801E6
:103BD000882777FD8095982F0E943024A7019601B1
:103BE0000E943E234B015C0128E431EE4AE75FE38B
:103BF000F10160817181828193810E9410256B01A6
:103C00007C0120E030E044E353E4C501B4010E94AC
:103C100010252BED3FE049E450E40E9495232AE073
:103C200037ED43EA5CE30E9410259B01AC01C7011C
:103C3000B6010E94CB22F10160837183828393835A
:103C4000DF91CF911F910F91FF90EF90DF90CF9078
:103C5000BF90AF909F908F907F906F905F904F90AC
:103C60003F902F9008958093320208958F929F92F3
:103C7000AF92BF92CF92DF92EF92FF92C0902E024E
:103C8000D0902F02E0903002F09031022091270373
:103C9000309128034091290350912A03C701B601AE
:103CA0000E94CA224B015C0160932202709323029E
:103CB000809324029093250220912B0330912C03B2
:103CC00040912D0350912E03C701B6010E94CA22D4
:103CD0006B017C0160931E0270931F02809320028F
:103CE0009093210220E030E040E251E4C501B401AC
:103CF0000E9410250E94FD235B0124E2A21A2AEFF4
:103D0000B20AB0922601A092250120E030E040E204
:103D100051E4C701B6010E9410250E94FD236452A0
:103D20007A4F709324016093230181E6A81689E0FD
:103D3000B80630F080E699E0909326018093250143
:103D400080912501909126018835924030F488E5D4
:103D500092E090932601809325016136794030F0FE
:103D600080E699E0909324018093230180912301C0
:103D7000909124018835924030F488E592E0909348
:103D800024018093230164E070E0809125019091EB
:103D900026010E946C0565E070E0809123019091FE
:103DA0002401FF90EF90DF90CF90BF90AF909F9055
:103DB0008F900C946C0583E39EE10E9448040E945E
:103DC000030378940E940F036093260270932702E6
:103DD00080932802909329028BE994E09F938F931C
:103DE000CFEBD4E0DF93CF930E94F0048AE894E015
:103DF0009F938F93DF93CF930E94F0040E94AB03B5
:103E000085E794E09F938F93DF93CF930E94F00414
:103E10000E94B41486E694E09F938F93DF93CF9330
:103E20000E94F0040E94D20A85E594E09F938F934C
:103E3000DF93CF930E94F0040E94A9188091E201C1
:103E40009091E301A091E401B091E50180932E02ED
:103E500090932F02A0933002B09331020E943A0552
:103E60008BE394E09F938F93DF93CF930E94F004B2
:103E70008DB79EB748960FB6F8949EBF0FBE8DBF04
:103E8000809132028B3221F0809132028D3211F416
:103E9000109232020E94DB1C0E94361EF1CFA3E179
:103EA000B0E0E5E5FFE10C9423267C011B016A01EB
:103EB000FC0117821682838181FF66C3BE016F5F9A
:103EC0007F4F4B01F7019381F10193FD859193FFA2
:103ED00081911F01882309F453C3853239F493FD7E
:103EE000859193FF81911F01853239F4B70190E0EC
:103EF0000E94D82756016501E5CF10E0512C20E043
:103F00002032A0F48B3269F030F4803259F08332E1
:103F100069F420612CC08D3239F0803339F421608E
:103F200026C02260246023C0286021C027FD27C04E
:103F300030ED380F3A3078F426FF06C0FAE01F9FC4
:103F4000300D1124132F13C06AE0569E300D11243A
:103F5000532E20620CC08E3221F426FD11C3206442
:103F600006C08C3611F4206802C0883641F4F10195
:103F700093FD859193FF81911F018111C1CF9BEB2F
:103F8000980F933018F42061805E06C09BE9980F6B
:103F9000933008F0AAC12F7E26FF16E02F73722EF1
:103FA000853621F4F22FF0647F2E08C0863621F486
:103FB000622F6068762E02C01111115077FE07C083
:103FC0001C3348F444244394410E27E00BC01830BE
:103FD00030F4212F06C027E04CE3442E03C027E035
:103FE00017E0412C560174E0A70EB11CF601608168
:103FF000718182819381042DA4010E949F266C010E
:10400000098100FF02C003FF06C071FC07C072FCFB
:1040100008C0612C08C03DE2632E05C02BE2622E71
:1040200002C090E2692E802F8C7099F1662011F009
:1040300084E001C083E0851510F0512C0BC0581AA4
:1040400073FC08C0B70180E290E00E94D8275A9420
:10405000C9F7F3CF662029F0B701862D90E00E94C2
:10406000D82703FD03C00AEC14E002C006EC14E0FC
:10407000F72DF0717F2EF8018491882309F476C220
:1040800071108052B70190E00E94D8270F5F1F4F38
:10409000F2CF77FE0FC04C0C04FF04C08A8181333D
:1040A00009F44A94141474F5F8E0F41578F588E0EE
:1040B000482E2CC076FC2AC0812F90E08C159D05DF
:1040C0009CF06CEFC6166FEFD60674F0772D706813
:1040D000772E0AC0E2E0F0E0EC0FFD1FE10FF11DCA
:1040E0008081803319F411501111F4CF77FE0EC086
:1040F00044244394410E812F90E0C816D9062CF435
:104100001C1904C04424439401C010E077FE07C08A
:104110001C141D043CF496012F5F3F4F05C025E0A1
:1041200030E002C021E030E0662011F02F5F3F4F09
:10413000112331F0412F50E04F5F5F4F240F351FA7
:10414000452D50E02417350714F4521A01C0512CA4
:10415000872D897049F4552039F0B70180E290E04D
:104160000E94D8275A94F7CF662029F0B701862DF0
:1041700090E00E94D82773FC09C0552039F0B701A0
:1041800080E390E00E94D8275A94F7CF77FE5FC073
:104190009C2D8D2DD7FE02C090E080E0692E782EF8
:1041A00040E050E0C601841991099D878C879601F3
:1041B00026193709280D391D812F90E0EE27FF279A
:1041C000E81BF90BFF87EE87FFEF6F167F0669F498
:1041D000B7018EE290E02B8B3A8B488B598B0E9473
:1041E000D827598948893A892B89C614D70454F0AD
:1041F0006C857D85661577052CF4F901E40FF51FB4
:10420000818101C080E371E0671A71084F5F5F4FE1
:10421000EE85FF856E167F066CF0B70190E02B8B64
:104220003A8B488B598B0E94D8272B893A89488929
:104230005989CACF6C147D0439F49A81963318F4E5
:10424000953311F404FF81E3B70190E04BC08A81FC
:10425000813309F00F7EB70190E00E94D827111139
:1042600005C074FE18C085E490E017C0B7018EE267
:1042700090E00E94D82782E066246394680EF401DF
:10428000E80FF11D8081B70190E00E94D8271150FE
:1042900041F3862DF1CF85E690E0B7010E94D82743
:1042A000D7FC05C0C114D10439F404FF05C0D19472
:1042B000C194D1088DE201C08BE2B70190E00E9469
:1042C000D82780E36AE0C616D1042CF08F5FFAE0AD
:1042D000CF1AD108F7CFB70190E00E94D827B701D5
:1042E000C601C0960E94D82741C1833631F083377A
:1042F00079F0833509F058C021C0560172E0A70E4D
:10430000B11CF6018081898301E010E0640114C0D2
:104310005601F2E0AF0EB11CF601C080D18026FF3D
:1043200003C0612F70E002C06FEF7FEFC6012B8BDF
:104330000E9482278C012B892F7715C05601F2E04D
:10434000AF0EB11CF601C080D18026FF03C0612FE3
:1043500070E002C06FEF7FEFC6012B8B0E947727C2
:104360008C012B892068722E23FD1AC0852D90E0C8
:1043700008171907A8F4B70180E290E00E94D82737
:104380005A94F4CFF60177FC859177FE81916F0105
:10439000B70190E00E94D82751105A94015011099A
:1043A0000115110579F7E2C0843611F0893651F50F
:1043B000560127FF09C0F4E0AF0EB11CF601608181
:1043C0007181828193810AC0F2E0AF0EB11CF601C7
:1043D00060817181882777FD8095982F022F0F7655
:1043E00097FF08C090958095709561957F4F8F4F8E
:1043F0009F4F00682AE030E0A4010E941928C82ECF
:10440000C8183EC0022F853721F40F7E2AE030E025
:104410001DC0097F8F3691F018F4883559F0B0C06F
:10442000803719F0883711F0ABC0006104FF09C074
:10443000046007C024FF08C0066006C028E030E022
:1044400005C020E130E002C020E132E0560107FF64
:1044500009C0F4E0AF0EB11CF60160817181828168
:10446000938108C0F2E0AF0EB11CF601608171814A
:1044700080E090E0A4010E941928C82EC8180F7788
:1044800006FF0BC0202F2E7FC11650F404FF0AC078
:1044900002FD08C0202F2E7E05C0DC2C202F03C07B
:1044A000DC2C01C0D12E24FF0DC0FE01EC0DF11D4E
:1044B0008081803311F4297E09C022FF06C0D39485
:1044C000D39404C0822F867809F0D39423FD13C0BF
:1044D00020FF06C01C2DD51418F4150D1D19D52C60
:1044E000D51468F4B70180E290E02B8B0E94D827A6
:1044F000D3942B89F5CFD51410F45D1801C0512C3D
:1045000024FF12C0B70180E390E02B8B0E94D827D4
:104510002B8922FF17C021FF03C088E590E002C06D
:1045200088E790E0B7010CC0822F867859F021FD12
:1045300002C080E201C08BE227FD8DE2B70190E06E
:104540000E94D827C11638F4B70180E390E00E949A
:10455000D8271150F7CFCA94F401EC0DF11D8081DA
:10456000B70190E00E94D827C110F5CF552009F47B
:10457000C2CCB70180E290E00E94D8275A94F6CFCF
:10458000F7018681978102C08FEF9FEF6396E2E18A
:104590000C943F265058BB27AA270ED0FCC1EDD162
:1045A00030F0F2D120F031F49F3F11F41EF4BDC180
:1045B0000EF4E095E7FBB3C1E92FFED180F3BA1703
:1045C000620773078407950718F071F49EF516C209
:1045D0000EF4E0950B2EBA2FA02D0B01B90190011E
:1045E0000C01CA01A0011124FF27591B99F0593F62
:1045F00050F4503E68F11A16F040A22F232F342FAA
:104600004427585FF3CF469537952795A795F040F7
:104610005395C9F77EF41F16BA0B620B730B840B0C
:10462000BAF09150A1F0FF0FBB1F661F771F881FC4
:10463000C2F70EC0BA0F621F731F841F48F487951C
:1046400077956795B795F7959E3F08F0B3CF93950B
:10465000880F08F09927EE0F9795879508958DD1CB
:1046600058F080E891E009F49EEF8ED128F040E800
:1046700051E059F45EEF09C058C1C0C1E92FE0789C
:104680009BD168F3092E052AC1F32617370748077F
:10469000590738F00E2E07F8E02569F0E025E064B0
:1046A0000AC0EF6307F8009407FADB01B9019D0126
:1046B000DC01CA01AD01EF9347D06DD10AD05F9103
:1046C000552331F02BED3FE049E450FD49EC63CF39
:1046D0000895DF93DD27B92FBF7740E85FE3161613
:1046E000170648075B0710F4D92F93D19F938F9338
:1046F0007F936F933AD2E8E6F0E01AD14CD12F9134
:104700003F914F915F9198D1DD2349F09058A2EAF3
:104710002AED3FE049EC5FE3D0785D274DDFDF9184
:104720003AC1D9D008F481E008950CD034C12CD11D
:1047300040F023D130F021F45F3F19F0F0C0511167
:104740005EC1F3C039D198F39923C9F35523B1F36E
:10475000951B550BBB27AA2762177307840738F0F0
:104760009F5F5F4F220F331F441FAA1FA9F333D04F
:104770000E2E3AF0E0E830D091505040E695001C03
:10478000CAF729D0FE2F27D0660F771F881FBB1FBF
:10479000261737074807AB07B0E809F0BB0B802D99
:1047A000BF01FF2793585F4F2AF09E3F510568F0E5
:1047B000B6C025C15F3FECF3983EDCF38695779554
:1047C0006795B795F7959F5FC9F7880F911D9695E7
:1047D000879597F90895E1E0660F771F881FBB1F43
:1047E000621773078407BA0720F0621B730B840BF0
:1047F000BA0BEE1F88F7E095089504D06894B111C4
:10480000FEC00895E1D088F09F5790F0B92F992706
:10481000B751A0F0D1F0660F771F881F991F1AF0CB
:10482000BA95C9F712C0B13081F0E8D0B1E008956F
:10483000E5C0672F782F8827B85F39F0B93FCCF3F0
:10484000869577956795B395D9F73EF490958095C1
:10485000709561957F4F8F4F9F4F0895E89409C0E1
:1048600097FB3EF490958095709561957F4F8F4FA3
:104870009F4F9923A9F0F92F96E9BB279395F695B9
:10488000879577956795B795F111F8CFFAF4BB0F37
:1048900011F460FF1BC06F5F7F4F8F4F9F4F16C09B
:1048A000882311F096E911C0772321F09EE8872F25
:1048B000762F05C0662371F096E8862F70E060E0E1
:1048C0002AF09A95660F771F881FDAF7880F96955A
:1048D000879597F90895990F0008550FAA0BE0E8FE
:1048E000FEEF16161706E807F907C0F012161306B2
:1048F000E407F50798F0621B730B840B950B39F4F2
:104900000A2661F0232B242B252B21F408950A2657
:1049100009F4A140A6958FEF811D811D089597F997
:104920009F6780E870E060E008959FEF80EC089555
:10493000DF93CF931F930F93FF92EF92DF927B0150
:104940008C01689405C0DA2EEF0176D0FE01E89460
:10495000A5912591359145915591AEF3EF012CDE4E
:10496000FE019701A801DA9479F7DF90EF90FF90AC
:104970000F911F91CF91DF91089500240A9416168C
:10498000170618060906089500240A94121613063D
:10499000140605060895092E0394000C11F48823CB
:1049A00052F0BB0F40F4BF2B11F460FF04C06F5FE7
:1049B0007F4F8F4F9F4F089557FD9058440F551FBD
:1049C00059F05F3F71F04795880F97FB991F61F091
:1049D0009F3F79F087950895121613061406551F08
:1049E000F2CF4695F1DF08C0161617061806991F74
:1049F000F1CF86957105610508940895E894BB2769
:104A000066277727CB0197F9089565DF08F48FEFC4
:104A100008959B01AC0160E070E080E89FE385CEE3
:104A20000BD0B9CFAADF28F0AFDF18F0952309F03B
:104A300076CF7BCF1124E3CFBFDFA0F3959FD1F3D7
:104A4000950F50E0551F629FF001729FBB27F00D3C
:104A5000B11D639FAA27F00DB11DAA1F649F662791
:104A6000B00DA11D661F829F2227B00DA11D621FE0
:104A7000739FB00DA11D621F839FA00D611D221F9A
:104A8000749F3327A00D611D231F849F600D211D7E
:104A9000822F762F6A2F11249F5750408AF0E1F021
:104AA00088234AF0EE0FFF1FBB1F661F771F881F6A
:104AB00091505040A9F79E3F510570F030CF9FCFE5
:104AC0005F3FECF3983EDCF3869577956795B79555
:104AD000F795E7959F5FC1F7FE2B880F911D96957F
:104AE000879597F9089511F40EF41FCF41C06CDF3C
:104AF000D0F39923D9F3CEF39F57550B87FF46D0B8
:104B00000024A0E640EA900180585695979528F435
:104B1000805C660F771F881F20F02617370748072D
:104B200030F4621B730B840B202931294A2BA69584
:104B300017940794202531254A2758F7660F771FC9
:104B4000881F20F026173707480730F4620B730BD5
:104B5000840B200D311D411DA09581F7B901842FD3
:104B60009158880F9695879508959B01AC0158CF71
:104B70009F3F31F0915020F4879577956795B795D1
:104B8000880F911D9695879597F9089591505040FB
:104B9000660F771F881FD2F70895DB018F939F93CD
:104BA0000E941026BF91AF91A29F800D911DA39FDF
:104BB000900DB29F900D1124089597FB072E16F4C7
:104BC000009407D077FD09D00E945A2607FC05D033
:104BD0003EF4909581959F4F0895709561957F4F14
:104BE0000895052E97FB1EF400940E94082657FD99
:104BF00007D00E946E2607FC03D04EF40C940826C2
:104C000050954095309521953F4F4F4F5F4F0895F8
:104C100090958095709561957F4F8F4F9F4F089528
:104C20000E949026A59F900DB49F900DA49F800D8B
:104C3000911D11240895B7FF0C9410260E94102690
:104C4000821B930B08952F923F924F925F926F9227
:104C50007F928F929F92AF92BF92CF92DF92EF920C
:104C6000FF920F931F93CF93DF93CDB7DEB7CA1B8D
:104C7000DB0B0FB6F894DEBF0FBECDBF09942A88B8
:104C8000398848885F846E847D848C849B84AA8460
:104C9000B984C884DF80EE80FD800C811B81AA81ED
:104CA000B981CE0FD11D0FB6F894DEBF0FBECDBFB8
:104CB000ED010895AA1BBB1B51E107C0AA1FBB1F32
:104CC000A617B70710F0A61BB70B881F991F5A9598
:104CD000A9F780959095BC01CD010895A1E21A2E07
:104CE000AA1BBB1BFD010DC0AA1FBB1FEE1FFF1F90
:104CF000A217B307E407F50720F0A21BB30BE40BE0
:104D0000F50B661F771F881F991F1A9469F7609526
:104D10007095809590959B01AC01BD01CF010895E0
:104D2000A29FB001B39FC001A39F700D811D1124EC
:104D3000911DB29F700D811D1124911D0895283081
:104D400008F027E03327DA01990F311D87FD9160C4
:104D500000966105710539F432602E5F3D9330E3B2
:104D60002A95E1F708959F3F30F08038710561057D
:104D700009F03C5F3C5F3D93913008F08068911DE5
:104D8000DF93CF931F930F93FF92EF92192F987F8A
:104D90009695E92F96959695E90FFF27E85DFA4FCE
:104DA00099273327EE24FF24A701E70105900894F3
:104DB000079428F4360FE71EF81E491F511D660F91
:104DC000771F881F991F0694A1F70590079428F470
:104DD000E70EF81E491F561FC11D770F881F991F28
:104DE000661F0694A1F70590079428F4F80E491F52
:104DF000561FC71FD11D880F991F661F771F069466
:104E0000A1F70590079420F4490F561FC71FD81F1C
:104E1000990F661F771F881F0694A9F78491109534
:104E2000177041F0D695C79557954795F794E79435
:104E30001A95C1F7EEECF4E0689415901591359150
:104E40006591959105907FE27395E118F10A430B06
:104E5000560BC90BD009C0F7E10CF11E431F561FBA
:104E6000C91FD01D7EF4703311F48A95E6CFE89403
:104E7000015030F0080F0AF40027021708F4202F21
:104E80002395022F7A3328F079E37D932A95E9F769
:104E900010C07D932A9589F6069497956795379566
:104EA00017951794E118F10A430B560BC90BD0095B
:104EB00098F023957E9173957A3308F070E37C9394
:104EC0002013B8F77E9170617D9330F0839571E384
:104ED0007D9370E32A95E1F71124EF90FF900F91F5
:104EE0001F91CF91DF91992787FD90950895FC013F
:104EF0000590615070400110D8F7809590958E0F05
:104F00009F1F0895FC016150704001900110D8F777
:104F1000809590958E0F9F1F08950F931F93CF93A9
:104F2000DF93EC018B01009731F46115710519F4E1
:104F300080E090E038C06EE070E081E090E00E9498
:104F40008D28FC010097A1F380E8838301151105EA
:104F500071F01387028781E8838380914B039091DE
:104F60004C03892B21F4F0934C03E0934B032097DF
:104F7000C9F0D187C08783818260838380914D038C
:104F800090914E03892B71F4F0934E03E0934D03FF
:104F900080914F0390915003892B21F4F09350039B
:104FA000E0934F03CF01DF91CF911F910F910895AF
:104FB0000F931F93CF93DF93182F092FEB018B8152
:104FC00081FD03C08FEF9FEF20C082FF10C04E8194
:104FD0005F812C813D81421753077CF4E881F98180
:104FE0009F012F5F3F4F39832883108306C0E885D8
:104FF000F985812F0995892B29F72E813F812F5F14
:105000003F4F3F832E83812F902FDF91CF911F91B0
:105010000F910895CF93DF93EC018B8188608B8390
:10502000CE010E944F1F2B81277F2B83DF91CF91D1
:105030000895FA01AA27283051F1203181F1E8942E
:105040006F936E7F6E5F7F4F8F4F9F4FAF4FB1E07B
:105050003ED0B4E03CD0670F781F891F9A1FA11D76
:10506000680F791F8A1F911DA11D6A0F711D811D77
:10507000911DA11D20D009F468943F912AE0269F3C
:1050800011243019305D3193DEF6CF010895462F9B
:105090004770405D4193B3E00FD0C9F7F6CF462F7C
:1050A0004F70405D4A3318F0495D31FD40524193E5
:1050B00002D0A9F7EACFB4E0A695979587957795A2
:1050C0006795BA95C9F700976105710508959B0129
:1050D000AC010A2E06945795479537952795BA95B2
:1050E000C9F7620F731F841F951FA01D0895F999BA
:1050F000FECF92BD81BDF89A992780B50895262FDD
:10510000F999FECF1FBA92BD81BD20BD0FB6F894AC
:10511000FA9AF99A0FBE019608950F931F93CF93B1
:10512000DF93869F8001879F100D969F100D11249D
:10513000C8010E94A928EC01009729F0A80160E0AD
:1051400070E00E94D029CE01DF91CF911F910F9185
:105150000895CF93DF938230910510F482E090E0C0
:10516000E0915303F091540320E030E0A0E0B0E080
:10517000309739F14081518148175907B8F04817E5
:10518000590771F482819381109729F013969C93AB
:105190008E9312972CC0909354038093530327C08F
:1051A0002115310531F04217530718F0A901DB0131
:1051B00001C0EF019A01BD01DF010280F381E02D02
:1051C000D7CF21153105F9F0281B390B24303105D3
:1051D00080F48A819B816115710521F0FB01938325
:1051E000828304C09093540380935303FE0132964C
:1051F00044C0FE01E20FF31F8193919322503109C5
:10520000398328833AC02091510330915203232BD4
:1052100041F4209102013091030130935203209315
:10522000510320910001309101012115310541F414
:105230002DB73EB74091040150910501241B350B59
:10524000E0915103F0915203E217F307A0F42E1BF3
:105250003F0B2817390778F0AC014E5F5F4F2417DA
:10526000350748F04E0F5F1F509352034093510390
:105270008193919302C0E0E0F0E0CF01DF91CF9104
:105280000895CF93DF93009709F487C0FC0132970C
:1052900013821282C0915303D0915403209781F45A
:1052A00020813181280F391F809151039091520341
:1052B0008217930779F5F0935203E09351036DC081
:1052C000DE0120E030E0AE17BF0750F412964D919A
:1052D0005C9113979D014115510509F1DA01F3CF56
:1052E000B383A28340815181840F951F8A179B0746
:1052F00071F48D919C911197840F951F0296918363
:10530000808312968D919C911397938382832115AC
:10531000310529F4F0935403E09353033EC0D901BF
:105320001396FC93EE9312974D915D91A40FB51FC8
:10533000EA17FB0779F480819181840F951F02960B
:10534000D90111969C938E938281938113969C939D
:105350008E931297E0E0F0E08A819B81009719F02C
:10536000FE01EC01F9CFCE01029628813981820F2E
:10537000931F20915103309152032817390769F484
:10538000309729F4109254031092530302C01382F1
:105390001282D0935203C0935103DF91CF910895AD
:1053A000DC0101C06D9341505040E0F70895F8943E
:0253B000FFCF2D
:1053B200000055032000DC05DC05000100010100AE
:1053C200020100000100010100020100190068E869
:1053D200030A01DC05DC05000003430000003F0076
:0453E2000003430081
:00000001FF
